{
  "_format": "hh-sol-artifact-1",
  "contractName": "AuctionFactory",
  "sourceName": "blockchain/contracts/AuctionFactory.sol",
  "abi": [
    {
      "inputs": [
        {
          "internalType": "uint256",
          "name": "",
          "type": "uint256"
        }
      ],
      "name": "auctionNFTs",
      "outputs": [
        {
          "internalType": "contract AuctionNFT",
          "name": "",
          "type": "address"
        }
      ],
      "stateMutability": "view",
      "type": "function"
    },
    {
      "inputs": [
        {
          "internalType": "uint256",
          "name": "",
          "type": "uint256"
        }
      ],
      "name": "auctions",
      "outputs": [
        {
          "internalType": "contract Auction",
          "name": "",
          "type": "address"
        }
      ],
      "stateMutability": "view",
      "type": "function"
    },
    {
      "inputs": [
        {
          "internalType": "uint256",
          "name": "",
          "type": "uint256"
        }
      ],
      "name": "auctionsAddresses",
      "outputs": [
        {
          "internalType": "address",
          "name": "",
          "type": "address"
        }
      ],
      "stateMutability": "view",
      "type": "function"
    },
    {
      "inputs": [
        {
          "internalType": "uint256",
          "name": "",
          "type": "uint256"
        }
      ],
      "name": "auctionsNFTAddresses",
      "outputs": [
        {
          "internalType": "address",
          "name": "",
          "type": "address"
        }
      ],
      "stateMutability": "view",
      "type": "function"
    },
    {
      "inputs": [
        {
          "internalType": "uint256",
          "name": "number",
          "type": "uint256"
        }
      ],
      "name": "checkAuction",
      "outputs": [
        {
          "internalType": "address",
          "name": "auc",
          "type": "address"
        }
      ],
      "stateMutability": "view",
      "type": "function"
    },
    {
      "inputs": [],
      "name": "getAllAuctionNFTAddresses",
      "outputs": [
        {
          "internalType": "address[]",
          "name": "listOfAuctionsNFT",
          "type": "address[]"
        }
      ],
      "stateMutability": "view",
      "type": "function"
    },
    {
      "inputs": [],
      "name": "getAllAuctionsAddresses",
      "outputs": [
        {
          "internalType": "address[]",
          "name": "listOfAuctions",
          "type": "address[]"
        }
      ],
      "stateMutability": "view",
      "type": "function"
    },
    {
      "inputs": [
        {
          "internalType": "uint256",
          "name": "number",
          "type": "uint256"
        }
      ],
      "name": "getAuciton",
      "outputs": [
        {
          "internalType": "contract Auction",
          "name": "auc",
          "type": "address"
        }
      ],
      "stateMutability": "view",
      "type": "function"
    },
    {
      "inputs": [],
      "name": "getContractCount",
      "outputs": [
        {
          "internalType": "uint256",
          "name": "",
          "type": "uint256"
        }
      ],
      "stateMutability": "view",
      "type": "function"
    },
    {
      "inputs": [
        {
          "internalType": "string",
          "name": "name",
          "type": "string"
        },
        {
          "internalType": "uint256",
          "name": "initialBid",
          "type": "uint256"
        },
        {
          "internalType": "uint256",
          "name": "time",
          "type": "uint256"
        }
      ],
      "name": "newAuction",
      "outputs": [
        {
          "internalType": "contract Auction",
          "name": "newContract",
          "type": "address"
        }
      ],
      "stateMutability": "nonpayable",
      "type": "function"
    },
    {
      "inputs": [
        {
          "internalType": "string",
          "name": "tokenURI",
          "type": "string"
        }
      ],
      "name": "newAuctionNFT",
      "outputs": [
        {
          "internalType": "contract AuctionNFT",
          "name": "",
          "type": "address"
        }
      ],
      "stateMutability": "nonpayable",
      "type": "function"
    }
  ],
  "bytecode": "0x608060405234801561001057600080fd5b50614f7d806100206000396000f3fe60806040523480156200001157600080fd5b5060043610620000b85760003560e01c8063570f1fac116200007b578063570f1fac146200028c578063571a26a0146200038b5780639399869d14620003e6578063a2d985f21462000406578063c53db8c714620004f1578063fd8d9ec7146200054c57620000b8565b80631295490414620000bd5780631e34424e146200011857806320c03948146200017357806331155a4014620001ce57806353e114fe1462000231575b600080fd5b620000ec60048036036020811015620000d557600080fd5b8101908080359060200190929190505050620005af565b604051808273ffffffffffffffffffffffffffffffffffffffff16815260200191505060405180910390f35b62000147600480360360208110156200013057600080fd5b8101908080359060200190929190505050620005ec565b604051808273ffffffffffffffffffffffffffffffffffffffff16815260200191505060405180910390f35b620001a2600480360360208110156200018b57600080fd5b81019080803590602001909291905050506200062d565b604051808273ffffffffffffffffffffffffffffffffffffffff16815260200191505060405180910390f35b620001d86200066f565b6040518080602001828103825283818151815260200191508051906020019060200280838360005b838110156200021d57808201518184015260208101905062000200565b505050509050019250505060405180910390f35b62000260600480360360208110156200024957600080fd5b8101908080359060200190929190505050620006ff565b604051808273ffffffffffffffffffffffffffffffffffffffff16815260200191505060405180910390f35b6200035f60048036036060811015620002a457600080fd5b8101908080359060200190640100000000811115620002c257600080fd5b820183602082011115620002d557600080fd5b80359060200191846001830284011164010000000083111715620002f857600080fd5b91908080601f016020809104026020016040519081016040528093929190818152602001838380828437600081840152601f19601f82011690508083019250505050505050919291929080359060200190929190803590602001909291905050506200073c565b604051808273ffffffffffffffffffffffffffffffffffffffff16815260200191505060405180910390f35b620003ba60048036036020811015620003a357600080fd5b8101908080359060200190929190505050620008c1565b604051808273ffffffffffffffffffffffffffffffffffffffff16815260200191505060405180910390f35b620003f0620008fe565b6040518082815260200191505060405180910390f35b620004c5600480360360208110156200041e57600080fd5b81019080803590602001906401000000008111156200043c57600080fd5b8201836020820111156200044f57600080fd5b803590602001918460018302840111640100000000831117156200047257600080fd5b91908080601f016020809104026020016040519081016040528093929190818152602001838380828437600081840152601f19601f8201169050808301925050505050505091929192905050506200090a565b604051808273ffffffffffffffffffffffffffffffffffffffff16815260200191505060405180910390f35b62000520600480360360208110156200050957600080fd5b810190808035906020019092919050505062000a0a565b604051808273ffffffffffffffffffffffffffffffffffffffff16815260200191505060405180910390f35b6200055662000a47565b6040518080602001828103825283818151815260200191508051906020019060200280838360005b838110156200059b5780820151818401526020810190506200057e565b505050509050019250505060405180910390f35b60028181548110620005bd57fe5b906000526020600020016000915054906101000a900473ffffffffffffffffffffffffffffffffffffffff1681565b6000808281548110620005fb57fe5b9060005260206000200160009054906101000a900473ffffffffffffffffffffffffffffffffffffffff169050919050565b6000600282815481106200063d57fe5b9060005260206000200160009054906101000a900473ffffffffffffffffffffffffffffffffffffffff169050919050565b60606003805480602002602001604051908101604052809291908181526020018280548015620006f557602002820191906000526020600020905b8160009054906101000a900473ffffffffffffffffffffffffffffffffffffffff1673ffffffffffffffffffffffffffffffffffffffff1681526020019060010190808311620006aa575b5050505050905090565b600381815481106200070d57fe5b906000526020600020016000915054906101000a900473ffffffffffffffffffffffffffffffffffffffff1681565b600080828585604051620007509062000ad7565b8084815260200180602001838152602001828103825284818151815260200191508051906020019080838360005b838110156200079b5780820151818401526020810190506200077e565b50505050905090810190601f168015620007c95780820380516001836020036101000a031916815260200191505b50945050505050604051809103906000f080158015620007ed573d6000803e3d6000fd5b5090506000819080600181540180825580915050600190039060005260206000200160009091909190916101000a81548173ffffffffffffffffffffffffffffffffffffffff021916908373ffffffffffffffffffffffffffffffffffffffff1602179055506002819080600181540180825580915050600190039060005260206000200160009091909190916101000a81548173ffffffffffffffffffffffffffffffffffffffff021916908373ffffffffffffffffffffffffffffffffffffffff160217905550809150509392505050565b60008181548110620008cf57fe5b906000526020600020016000915054906101000a900473ffffffffffffffffffffffffffffffffffffffff1681565b60008080549050905090565b6000806040516200091b9062000ae5565b604051809103906000f08015801562000938573d6000803e3d6000fd5b5090506001819080600181540180825580915050600190039060005260206000200160009091909190916101000a81548173ffffffffffffffffffffffffffffffffffffffff021916908373ffffffffffffffffffffffffffffffffffffffff1602179055506003819080600181540180825580915050600190039060005260206000200160009091909190916101000a81548173ffffffffffffffffffffffffffffffffffffffff021916908373ffffffffffffffffffffffffffffffffffffffff16021790555080915050919050565b6001818154811062000a1857fe5b906000526020600020016000915054906101000a900473ffffffffffffffffffffffffffffffffffffffff1681565b6060600280548060200260200160405190810160405280929190818152602001828054801562000acd57602002820191906000526020600020905b8160009054906101000a900473ffffffffffffffffffffffffffffffffffffffff1673ffffffffffffffffffffffffffffffffffffffff168152602001906001019080831162000a82575b5050505050905090565b610f558062000af483390190565b6134ff8062001a498339019056fe60806040523480156200001157600080fd5b5060405162000f5538038062000f55833981810160405260608110156200003757600080fd5b8101908080519060200190929190805160405193929190846401000000008211156200006257600080fd5b838201915060208201858111156200007957600080fd5b82518660018202830111640100000000821117156200009757600080fd5b8083526020830192505050908051906020019080838360005b83811015620000cd578082015181840152602081019050620000b0565b50505050905090810190601f168015620000fb5780820380516001836020036101000a031916815260200191505b5060405260200180519060200190929190505050336000806101000a81548173ffffffffffffffffffffffffffffffffffffffff021916908373ffffffffffffffffffffffffffffffffffffffff16021790555082420160018190555081600290805190602001906200017092919062000181565b508060058190555050505062000227565b828054600181600116156101000203166002900490600052602060002090601f016020900481019282601f10620001c457805160ff1916838001178555620001f5565b82800160010185558215620001f5579182015b82811115620001f4578251825591602001919060010190620001d7565b5b50905062000204919062000208565b5090565b5b808211156200022357600081600090555060010162000209565b5090565b610d1e80620002376000396000f3fe6080604052600436106101095760003560e01c80638391293511610095578063d57bde7911610064578063d57bde79146103d9578063d881bf6014610404578063f29463d51461042f578063f2a4a82e14610470578063fafa30db1461050057610109565b806383912935146102b057806386433374146102db57806391f9015714610308578063c819d85a1461034957610109565b80633197cbb6116100dc5780633197cbb6146101bf57806338af3eed146101ea5780633ccfd60b1461022b5780635bec71db1461025857806367ea4abb1461028557610109565b80631998aeef1461010e57806326b387bb146101185780632a24f46c1461017d5780633069ce9a14610194575b600080fd5b61011661052b565b005b34801561012457600080fd5b506101676004803603602081101561013b57600080fd5b81019080803573ffffffffffffffffffffffffffffffffffffffff169060200190929190505050610759565b6040518082815260200191505060405180910390f35b34801561018957600080fd5b50610192610771565b005b3480156101a057600080fd5b506101a961094d565b6040518082815260200191505060405180910390f35b3480156101cb57600080fd5b506101d4610957565b6040518082815260200191505060405180910390f35b3480156101f657600080fd5b506101ff61095d565b604051808273ffffffffffffffffffffffffffffffffffffffff16815260200191505060405180910390f35b34801561023757600080fd5b50610240610981565b60405180821515815260200191505060405180910390f35b34801561026457600080fd5b5061026d610aa5565b60405180821515815260200191505060405180910390f35b34801561029157600080fd5b5061029a610ab8565b6040518082815260200191505060405180910390f35b3480156102bc57600080fd5b506102c5610abe565b6040518082815260200191505060405180910390f35b3480156102e757600080fd5b506102f0610b05565b60405180821515815260200191505060405180910390f35b34801561031457600080fd5b5061031d610b1c565b604051808273ffffffffffffffffffffffffffffffffffffffff16815260200191505060405180910390f35b34801561035557600080fd5b5061035e610b42565b6040518080602001828103825283818151815260200191508051906020019080838360005b8381101561039e578082015181840152602081019050610383565b50505050905090810190601f1680156103cb5780820380516001836020036101000a031916815260200191505b509250505060405180910390f35b3480156103e557600080fd5b506103ee610be4565b6040518082815260200191505060405180910390f35b34801561041057600080fd5b50610419610bea565b6040518082815260200191505060405180910390f35b34801561043b57600080fd5b50610444610bf4565b604051808273ffffffffffffffffffffffffffffffffffffffff16815260200191505060405180910390f35b34801561047c57600080fd5b50610485610c1e565b6040518080602001828103825283818151815260200191508051906020019080838360005b838110156104c55780820151818401526020810190506104aa565b50505050905090810190601f1680156104f25780820380516001836020036101000a031916815260200191505b509250505060405180910390f35b34801561050c57600080fd5b50610515610cbc565b6040518082815260200191505060405180910390f35b6001544211156105a3576040517f08c379a00000000000000000000000000000000000000000000000000000000081526004018080602001828103825260158152602001807f41637469756e656120732d61207465726d696e6174000000000000000000000081525060200191505060405180910390fd5b600454341161061a576040517f08c379a00000000000000000000000000000000000000000000000000000000081526004018080602001828103825260148152602001807f4269642d756c20657374652070726561206d696300000000000000000000000081525060200191505060405180910390fd5b6000600454146106965760045460076000600360009054906101000a900473ffffffffffffffffffffffffffffffffffffffff1673ffffffffffffffffffffffffffffffffffffffff1673ffffffffffffffffffffffffffffffffffffffff168152602001908152602001600020600082825401925050819055505b33600360006101000a81548173ffffffffffffffffffffffffffffffffffffffff021916908373ffffffffffffffffffffffffffffffffffffffff160217905550346004819055507fcf84a46a93294358c23e7c87e557feb461890c72f3547fb25b455167dcea9efb600360009054906101000a900473ffffffffffffffffffffffffffffffffffffffff16600454604051808373ffffffffffffffffffffffffffffffffffffffff1681526020018281526020019250505060405180910390a1565b60076020528060005260406000206000915090505481565b60015442116107e8576040517f08c379a00000000000000000000000000000000000000000000000000000000081526004018080602001828103825260188152602001807f41637469756e6561206e7520732d61207465726d696e6174000000000000000081525060200191505060405180910390fd5b600660009054906101000a900460ff161561084e576040517f08c379a0000000000000000000000000000000000000000000000000000000008152600401808060200182810382526022815260200180610cc76022913960400191505060405180910390fd5b6001600660006101000a81548160ff02191690831515021790555060008054906101000a900473ffffffffffffffffffffffffffffffffffffffff1673ffffffffffffffffffffffffffffffffffffffff166108fc6004549081150290604051600060405180830381858888f193505050501580156108d1573d6000803e3d6000fd5b507fdaec4582d5d9595688c8c98545fdd1c696d41c6aeaeb636737e84ed2f5c00eda600360009054906101000a900473ffffffffffffffffffffffffffffffffffffffff16600454604051808373ffffffffffffffffffffffffffffffffffffffff1681526020018281526020019250505060405180910390a1565b6000600454905090565b60015481565b60008054906101000a900473ffffffffffffffffffffffffffffffffffffffff1681565b600080600760003373ffffffffffffffffffffffffffffffffffffffff1673ffffffffffffffffffffffffffffffffffffffff1681526020019081526020016000205490506000811115610a9c576000600760003373ffffffffffffffffffffffffffffffffffffffff1673ffffffffffffffffffffffffffffffffffffffff168152602001908152602001600020819055503373ffffffffffffffffffffffffffffffffffffffff166108fc829081150290604051600060405180830381858888f19350505050610a9b5780600760003373ffffffffffffffffffffffffffffffffffffffff1673ffffffffffffffffffffffffffffffffffffffff168152602001908152602001600020819055506000915050610aa2565b5b60019150505b90565b600660009054906101000a900460ff1681565b60055481565b6000600760003373ffffffffffffffffffffffffffffffffffffffff1673ffffffffffffffffffffffffffffffffffffffff16815260200190815260200160002054905090565b6000600660009054906101000a900460ff16905090565b600360009054906101000a900473ffffffffffffffffffffffffffffffffffffffff1681565b606060028054600181600116156101000203166002900480601f016020809104026020016040519081016040528092919081815260200182805460018160011615610100020316600290048015610bda5780601f10610baf57610100808354040283529160200191610bda565b820191906000526020600020905b815481529060010190602001808311610bbd57829003601f168201915b5050505050905090565b60045481565b6000600154905090565b6000600360009054906101000a900473ffffffffffffffffffffffffffffffffffffffff16905090565b60028054600181600116156101000203166002900480601f016020809104026020016040519081016040528092919081815260200182805460018160011615610100020316600290048015610cb45780601f10610c8957610100808354040283529160200191610cb4565b820191906000526020600020905b815481529060010190602001808311610c9757829003601f168201915b505050505081565b600060055490509056fe46756e6374696120646520656e64206120666f73742064656a61206170656c617461a2646970667358221220e831556d07939cdc5d9a5ba253badc8fa6c7da3e0fa8b0710b294c8d3523654864736f6c6343000701003360806040523480156200001157600080fd5b506040518060400160405280600581526020017f6d794e46540000000000000000000000000000000000000000000000000000008152506040518060400160405280600381526020017f4e46540000000000000000000000000000000000000000000000000000000000815250620000966301ffc9a760e01b6200020a60201b60201c565b8160069080519060200190620000ae9291906200031b565b508060079080519060200190620000c79291906200031b565b50620000e06380ac58cd60e01b6200020a60201b60201c565b620000f8635b5e139f60e01b6200020a60201b60201c565b6200011063780e9d6360e01b6200020a60201b60201c565b50506000620001246200031360201b60201c565b905080600a60006101000a81548173ffffffffffffffffffffffffffffffffffffffff021916908373ffffffffffffffffffffffffffffffffffffffff1602179055508073ffffffffffffffffffffffffffffffffffffffff16600073ffffffffffffffffffffffffffffffffffffffff167f8be0079c531659141344cd1fd0a4f28419497f9722a3daafe3b4186f6b6457e060405160405180910390a35033600c60006101000a81548173ffffffffffffffffffffffffffffffffffffffff021916908373ffffffffffffffffffffffffffffffffffffffff160217905550620003c1565b63ffffffff60e01b817bffffffffffffffffffffffffffffffffffffffffffffffffffffffff19161415620002a7576040517f08c379a000000000000000000000000000000000000000000000000000000000815260040180806020018281038252601c8152602001807f4552433136353a20696e76616c696420696e746572666163652069640000000081525060200191505060405180910390fd5b6001600080837bffffffffffffffffffffffffffffffffffffffffffffffffffffffff19167bffffffffffffffffffffffffffffffffffffffffffffffffffffffff1916815260200190815260200160002060006101000a81548160ff02191690831515021790555050565b600033905090565b828054600181600116156101000203166002900490600052602060002090601f016020900481019282601f106200035e57805160ff19168380011785556200038f565b828001600101855582156200038f579182015b828111156200038e57825182559160200191906001019062000371565b5b5090506200039e9190620003a2565b5090565b5b80821115620003bd576000816000905550600101620003a3565b5090565b61312e80620003d16000396000f3fe608060405234801561001057600080fd5b50600436106101425760003560e01c806370a08231116100b8578063b2bdfa7b1161007c578063b2bdfa7b146106b5578063b88d4fde146106e9578063c87b56dd146107ee578063e985e9c514610895578063eacabe141461090f578063f2fde38b146109fe57610142565b806370a082311461054c578063715018a6146105a45780638da5cb5b146105ae57806395d89b41146105e2578063a22cb4651461066557610142565b806323b872dd1161010a57806323b872dd146102f15780632f745c591461035f57806342842e0e146103c15780634f6ccce71461042f5780636352211e146104715780636c0360eb146104c957610142565b806301ffc9a71461014757806306fdde03146101aa578063081812fc1461022d578063095ea7b31461028557806318160ddd146102d3575b600080fd5b6101926004803603602081101561015d57600080fd5b8101908080357bffffffffffffffffffffffffffffffffffffffffffffffffffffffff19169060200190929190505050610a42565b60405180821515815260200191505060405180910390f35b6101b2610aa9565b6040518080602001828103825283818151815260200191508051906020019080838360005b838110156101f25780820151818401526020810190506101d7565b50505050905090810190601f16801561021f5780820380516001836020036101000a031916815260200191505b509250505060405180910390f35b6102596004803603602081101561024357600080fd5b8101908080359060200190929190505050610b4b565b604051808273ffffffffffffffffffffffffffffffffffffffff16815260200191505060405180910390f35b6102d16004803603604081101561029b57600080fd5b81019080803573ffffffffffffffffffffffffffffffffffffffff16906020019092919080359060200190929190505050610be6565b005b6102db610d2a565b6040518082815260200191505060405180910390f35b61035d6004803603606081101561030757600080fd5b81019080803573ffffffffffffffffffffffffffffffffffffffff169060200190929190803573ffffffffffffffffffffffffffffffffffffffff16906020019092919080359060200190929190505050610d3b565b005b6103ab6004803603604081101561037557600080fd5b81019080803573ffffffffffffffffffffffffffffffffffffffff16906020019092919080359060200190929190505050610db1565b6040518082815260200191505060405180910390f35b61042d600480360360608110156103d757600080fd5b81019080803573ffffffffffffffffffffffffffffffffffffffff169060200190929190803573ffffffffffffffffffffffffffffffffffffffff16906020019092919080359060200190929190505050610e0c565b005b61045b6004803603602081101561044557600080fd5b8101908080359060200190929190505050610e2c565b6040518082815260200191505060405180910390f35b61049d6004803603602081101561048757600080fd5b8101908080359060200190929190505050610e4f565b604051808273ffffffffffffffffffffffffffffffffffffffff16815260200191505060405180910390f35b6104d1610e86565b6040518080602001828103825283818151815260200191508051906020019080838360005b838110156105115780820151818401526020810190506104f6565b50505050905090810190601f16801561053e5780820380516001836020036101000a031916815260200191505b509250505060405180910390f35b61058e6004803603602081101561056257600080fd5b81019080803573ffffffffffffffffffffffffffffffffffffffff169060200190929190505050610f28565b6040518082815260200191505060405180910390f35b6105ac610ffd565b005b6105b661116d565b604051808273ffffffffffffffffffffffffffffffffffffffff16815260200191505060405180910390f35b6105ea611197565b6040518080602001828103825283818151815260200191508051906020019080838360005b8381101561062a57808201518184015260208101905061060f565b50505050905090810190601f1680156106575780820380516001836020036101000a031916815260200191505b509250505060405180910390f35b6106b36004803603604081101561067b57600080fd5b81019080803573ffffffffffffffffffffffffffffffffffffffff169060200190929190803515159060200190929190505050611239565b005b6106bd6113ef565b604051808273ffffffffffffffffffffffffffffffffffffffff16815260200191505060405180910390f35b6107ec600480360360808110156106ff57600080fd5b81019080803573ffffffffffffffffffffffffffffffffffffffff169060200190929190803573ffffffffffffffffffffffffffffffffffffffff169060200190929190803590602001909291908035906020019064010000000081111561076657600080fd5b82018360208201111561077857600080fd5b8035906020019184600183028401116401000000008311171561079a57600080fd5b91908080601f016020809104026020016040519081016040528093929190818152602001838380828437600081840152601f19601f820116905080830192505050505050509192919290505050611415565b005b61081a6004803603602081101561080457600080fd5b810190808035906020019092919050505061148d565b6040518080602001828103825283818151815260200191508051906020019080838360005b8381101561085a57808201518184015260208101905061083f565b50505050905090810190601f1680156108875780820380516001836020036101000a031916815260200191505b509250505060405180910390f35b6108f7600480360360408110156108ab57600080fd5b81019080803573ffffffffffffffffffffffffffffffffffffffff169060200190929190803573ffffffffffffffffffffffffffffffffffffffff16906020019092919050505061175e565b60405180821515815260200191505060405180910390f35b6109e86004803603604081101561092557600080fd5b81019080803573ffffffffffffffffffffffffffffffffffffffff1690602001909291908035906020019064010000000081111561096257600080fd5b82018360208201111561097457600080fd5b8035906020019184600183028401116401000000008311171561099657600080fd5b91908080601f016020809104026020016040519081016040528093929190818152602001838380828437600081840152601f19601f8201169050808301925050505050505091929192905050506117f2565b6040518082815260200191505060405180910390f35b610a4060048036036020811015610a1457600080fd5b81019080803573ffffffffffffffffffffffffffffffffffffffff1690602001909291905050506118d9565b005b6000806000837bffffffffffffffffffffffffffffffffffffffffffffffffffffffff19167bffffffffffffffffffffffffffffffffffffffffffffffffffffffff1916815260200190815260200160002060009054906101000a900460ff169050919050565b606060068054600181600116156101000203166002900480601f016020809104026020016040519081016040528092919081815260200182805460018160011615610100020316600290048015610b415780601f10610b1657610100808354040283529160200191610b41565b820191906000526020600020905b815481529060010190602001808311610b2457829003601f168201915b5050505050905090565b6000610b5682611ace565b610bab576040517f08c379a000000000000000000000000000000000000000000000000000000000815260040180806020018281038252602c815260200180612ff7602c913960400191505060405180910390fd5b6004600083815260200190815260200160002060009054906101000a900473ffffffffffffffffffffffffffffffffffffffff169050919050565b6000610bf182610e4f565b90508073ffffffffffffffffffffffffffffffffffffffff168373ffffffffffffffffffffffffffffffffffffffff161415610c78576040517f08c379a00000000000000000000000000000000000000000000000000000000081526004018080602001828103825260218152602001806130a76021913960400191505060405180910390fd5b8073ffffffffffffffffffffffffffffffffffffffff16610c97611aeb565b73ffffffffffffffffffffffffffffffffffffffff161480610cc65750610cc581610cc0611aeb565b61175e565b5b610d1b576040517f08c379a0000000000000000000000000000000000000000000000000000000008152600401808060200182810382526038815260200180612f4a6038913960400191505060405180910390fd5b610d258383611af3565b505050565b6000610d366002611bac565b905090565b610d4c610d46611aeb565b82611bc1565b610da1576040517f08c379a00000000000000000000000000000000000000000000000000000000081526004018080602001828103825260318152602001806130c86031913960400191505060405180910390fd5b610dac838383611cb5565b505050565b6000610e0482600160008673ffffffffffffffffffffffffffffffffffffffff1673ffffffffffffffffffffffffffffffffffffffff168152602001908152602001600020611ef890919063ffffffff16565b905092915050565b610e2783838360405180602001604052806000815250611415565b505050565b600080610e43836002611f1290919063ffffffff16565b50905080915050919050565b6000610e7f82604051806060016040528060298152602001612fac602991396002611f3e9092919063ffffffff16565b9050919050565b606060098054600181600116156101000203166002900480601f016020809104026020016040519081016040528092919081815260200182805460018160011615610100020316600290048015610f1e5780601f10610ef357610100808354040283529160200191610f1e565b820191906000526020600020905b815481529060010190602001808311610f0157829003601f168201915b5050505050905090565b60008073ffffffffffffffffffffffffffffffffffffffff168273ffffffffffffffffffffffffffffffffffffffff161415610faf576040517f08c379a000000000000000000000000000000000000000000000000000000000815260040180806020018281038252602a815260200180612f82602a913960400191505060405180910390fd5b610ff6600160008473ffffffffffffffffffffffffffffffffffffffff1673ffffffffffffffffffffffffffffffffffffffff168152602001908152602001600020611f5d565b9050919050565b611005611aeb565b73ffffffffffffffffffffffffffffffffffffffff1661102361116d565b73ffffffffffffffffffffffffffffffffffffffff16146110ac576040517f08c379a00000000000000000000000000000000000000000000000000000000081526004018080602001828103825260208152602001807f4f776e61626c653a2063616c6c6572206973206e6f7420746865206f776e657281525060200191505060405180910390fd5b600073ffffffffffffffffffffffffffffffffffffffff16600a60009054906101000a900473ffffffffffffffffffffffffffffffffffffffff1673ffffffffffffffffffffffffffffffffffffffff167f8be0079c531659141344cd1fd0a4f28419497f9722a3daafe3b4186f6b6457e060405160405180910390a36000600a60006101000a81548173ffffffffffffffffffffffffffffffffffffffff021916908373ffffffffffffffffffffffffffffffffffffffff160217905550565b6000600a60009054906101000a900473ffffffffffffffffffffffffffffffffffffffff16905090565b606060078054600181600116156101000203166002900480601f01602080910402602001604051908101604052809291908181526020018280546001816001161561010002031660029004801561122f5780601f106112045761010080835404028352916020019161122f565b820191906000526020600020905b81548152906001019060200180831161121257829003601f168201915b5050505050905090565b611241611aeb565b73ffffffffffffffffffffffffffffffffffffffff168273ffffffffffffffffffffffffffffffffffffffff1614156112e2576040517f08c379a00000000000000000000000000000000000000000000000000000000081526004018080602001828103825260198152602001807f4552433732313a20617070726f766520746f2063616c6c65720000000000000081525060200191505060405180910390fd5b80600560006112ef611aeb565b73ffffffffffffffffffffffffffffffffffffffff1673ffffffffffffffffffffffffffffffffffffffff16815260200190815260200160002060008473ffffffffffffffffffffffffffffffffffffffff1673ffffffffffffffffffffffffffffffffffffffff16815260200190815260200160002060006101000a81548160ff0219169083151502179055508173ffffffffffffffffffffffffffffffffffffffff1661139c611aeb565b73ffffffffffffffffffffffffffffffffffffffff167f17307eab39ab6107e8899845ad3d59bd9653f200f220920489ca2b5937696c318360405180821515815260200191505060405180910390a35050565b600c60009054906101000a900473ffffffffffffffffffffffffffffffffffffffff1681565b611426611420611aeb565b83611bc1565b61147b576040517f08c379a00000000000000000000000000000000000000000000000000000000081526004018080602001828103825260318152602001806130c86031913960400191505060405180910390fd5b61148784848484611f72565b50505050565b606061149882611ace565b6114ed576040517f08c379a000000000000000000000000000000000000000000000000000000000815260040180806020018281038252602f815260200180613078602f913960400191505060405180910390fd5b6060600860008481526020019081526020016000208054600181600116156101000203166002900480601f0160208091040260200160405190810160405280929190818152602001828054600181600116156101000203166002900480156115965780601f1061156b57610100808354040283529160200191611596565b820191906000526020600020905b81548152906001019060200180831161157957829003601f168201915b5050505050905060606115a7610e86565b90506000815114156115bd578192505050611759565b60008251111561168e5780826040516020018083805190602001908083835b602083106115ff57805182526020820191506020810190506020830392506115dc565b6001836020036101000a03801982511681845116808217855250505050505090500182805190602001908083835b60208310611650578051825260208201915060208101905060208303925061162d565b6001836020036101000a0380198251168184511680821785525050505050509050019250505060405160208183030381529060405292505050611759565b8061169885611fe4565b6040516020018083805190602001908083835b602083106116ce57805182526020820191506020810190506020830392506116ab565b6001836020036101000a03801982511681845116808217855250505050505090500182805190602001908083835b6020831061171f57805182526020820191506020810190506020830392506116fc565b6001836020036101000a03801982511681845116808217855250505050505090500192505050604051602081830303815290604052925050505b919050565b6000600560008473ffffffffffffffffffffffffffffffffffffffff1673ffffffffffffffffffffffffffffffffffffffff16815260200190815260200160002060008373ffffffffffffffffffffffffffffffffffffffff1673ffffffffffffffffffffffffffffffffffffffff16815260200190815260200160002060009054906101000a900460ff16905092915050565b60006117fc611aeb565b73ffffffffffffffffffffffffffffffffffffffff1661181a61116d565b73ffffffffffffffffffffffffffffffffffffffff16146118a3576040517f08c379a00000000000000000000000000000000000000000000000000000000081526004018080602001828103825260208152602001807f4f776e61626c653a2063616c6c6572206973206e6f7420746865206f776e657281525060200191505060405180910390fd5b6118ad600b61212b565b60006118b9600b612141565b90506118c5848261214f565b6118cf8184612343565b8091505092915050565b6118e1611aeb565b73ffffffffffffffffffffffffffffffffffffffff166118ff61116d565b73ffffffffffffffffffffffffffffffffffffffff1614611988576040517f08c379a00000000000000000000000000000000000000000000000000000000081526004018080602001828103825260208152602001807f4f776e61626c653a2063616c6c6572206973206e6f7420746865206f776e657281525060200191505060405180910390fd5b600073ffffffffffffffffffffffffffffffffffffffff168173ffffffffffffffffffffffffffffffffffffffff161415611a0e576040517f08c379a0000000000000000000000000000000000000000000000000000000008152600401808060200182810382526026815260200180612eae6026913960400191505060405180910390fd5b8073ffffffffffffffffffffffffffffffffffffffff16600a60009054906101000a900473ffffffffffffffffffffffffffffffffffffffff1673ffffffffffffffffffffffffffffffffffffffff167f8be0079c531659141344cd1fd0a4f28419497f9722a3daafe3b4186f6b6457e060405160405180910390a380600a60006101000a81548173ffffffffffffffffffffffffffffffffffffffff021916908373ffffffffffffffffffffffffffffffffffffffff16021790555050565b6000611ae48260026123cd90919063ffffffff16565b9050919050565b600033905090565b816004600083815260200190815260200160002060006101000a81548173ffffffffffffffffffffffffffffffffffffffff021916908373ffffffffffffffffffffffffffffffffffffffff160217905550808273ffffffffffffffffffffffffffffffffffffffff16611b6683610e4f565b73ffffffffffffffffffffffffffffffffffffffff167f8c5be1e5ebec7d5bd14f71427d1e84f3dd0314c0f7b2291e5b200ac8c7c3b92560405160405180910390a45050565b6000611bba826000016123e7565b9050919050565b6000611bcc82611ace565b611c21576040517f08c379a000000000000000000000000000000000000000000000000000000000815260040180806020018281038252602c815260200180612f1e602c913960400191505060405180910390fd5b6000611c2c83610e4f565b90508073ffffffffffffffffffffffffffffffffffffffff168473ffffffffffffffffffffffffffffffffffffffff161480611c9b57508373ffffffffffffffffffffffffffffffffffffffff16611c8384610b4b565b73ffffffffffffffffffffffffffffffffffffffff16145b80611cac5750611cab818561175e565b5b91505092915050565b8273ffffffffffffffffffffffffffffffffffffffff16611cd582610e4f565b73ffffffffffffffffffffffffffffffffffffffff1614611d41576040517f08c379a000000000000000000000000000000000000000000000000000000000815260040180806020018281038252602981526020018061304f6029913960400191505060405180910390fd5b600073ffffffffffffffffffffffffffffffffffffffff168273ffffffffffffffffffffffffffffffffffffffff161415611dc7576040517f08c379a0000000000000000000000000000000000000000000000000000000008152600401808060200182810382526024815260200180612ed46024913960400191505060405180910390fd5b611dd28383836123f8565b611ddd600082611af3565b611e2e81600160008673ffffffffffffffffffffffffffffffffffffffff1673ffffffffffffffffffffffffffffffffffffffff1681526020019081526020016000206123fd90919063ffffffff16565b50611e8081600160008573ffffffffffffffffffffffffffffffffffffffff1673ffffffffffffffffffffffffffffffffffffffff16815260200190815260200160002061241790919063ffffffff16565b50611e97818360026124319092919063ffffffff16565b50808273ffffffffffffffffffffffffffffffffffffffff168473ffffffffffffffffffffffffffffffffffffffff167fddf252ad1be2c89b69c2b068fc378daa952ba7f163c4a11628f55a4df523b3ef60405160405180910390a4505050565b6000611f078360000183612466565b60001c905092915050565b600080600080611f2586600001866124e9565b915091508160001c8160001c9350935050509250929050565b6000611f51846000018460001b84612582565b60001c90509392505050565b6000611f6b82600001612678565b9050919050565b611f7d848484611cb5565b611f8984848484612689565b611fde576040517f08c379a0000000000000000000000000000000000000000000000000000000008152600401808060200182810382526032815260200180612e7c6032913960400191505060405180910390fd5b50505050565b6060600082141561202c576040518060400160405280600181526020017f30000000000000000000000000000000000000000000000000000000000000008152509050612126565b600082905060005b60008214612056578080600101915050600a828161204e57fe5b049150612034565b60608167ffffffffffffffff8111801561206f57600080fd5b506040519080825280601f01601f1916602001820160405280156120a25781602001600182028036833780820191505090505b50905060006001830390508593505b6000841461211e57600a84816120c357fe5b0660300160f81b828280600190039350815181106120dd57fe5b60200101907effffffffffffffffffffffffffffffffffffffffffffffffffffffffffffff1916908160001a905350600a848161211657fe5b0493506120b1565b819450505050505b919050565b6001816000016000828254019250508190555050565b600081600001549050919050565b600073ffffffffffffffffffffffffffffffffffffffff168273ffffffffffffffffffffffffffffffffffffffff1614156121f2576040517f08c379a00000000000000000000000000000000000000000000000000000000081526004018080602001828103825260208152602001807f4552433732313a206d696e7420746f20746865207a65726f206164647265737381525060200191505060405180910390fd5b6121fb81611ace565b1561226e576040517f08c379a000000000000000000000000000000000000000000000000000000000815260040180806020018281038252601c8152602001807f4552433732313a20746f6b656e20616c7265616479206d696e7465640000000081525060200191505060405180910390fd5b61227a600083836123f8565b6122cb81600160008573ffffffffffffffffffffffffffffffffffffffff1673ffffffffffffffffffffffffffffffffffffffff16815260200190815260200160002061241790919063ffffffff16565b506122e2818360026124319092919063ffffffff16565b50808273ffffffffffffffffffffffffffffffffffffffff16600073ffffffffffffffffffffffffffffffffffffffff167fddf252ad1be2c89b69c2b068fc378daa952ba7f163c4a11628f55a4df523b3ef60405160405180910390a45050565b61234c82611ace565b6123a1576040517f08c379a000000000000000000000000000000000000000000000000000000000815260040180806020018281038252602c815260200180613023602c913960400191505060405180910390fd5b806008600084815260200190815260200160002090805190602001906123c8929190612dbc565b505050565b60006123df836000018360001b6128a2565b905092915050565b600081600001805490509050919050565b505050565b600061240f836000018360001b6128c5565b905092915050565b6000612429836000018360001b6129ad565b905092915050565b600061245d846000018460001b8473ffffffffffffffffffffffffffffffffffffffff1660001b612a1d565b90509392505050565b6000818360000180549050116124c7576040517f08c379a0000000000000000000000000000000000000000000000000000000008152600401808060200182810382526022815260200180612e5a6022913960400191505060405180910390fd5b8260000182815481106124d657fe5b9060005260206000200154905092915050565b6000808284600001805490501161254b576040517f08c379a0000000000000000000000000000000000000000000000000000000008152600401808060200182810382526022815260200180612fd56022913960400191505060405180910390fd5b600084600001848154811061255c57fe5b906000526020600020906002020190508060000154816001015492509250509250929050565b60008084600101600085815260200190815260200160002054905060008114158390612649576040517f08c379a00000000000000000000000000000000000000000000000000000000081526004018080602001828103825283818151815260200191508051906020019080838360005b8381101561260e5780820151818401526020810190506125f3565b50505050905090810190601f16801561263b5780820380516001836020036101000a031916815260200191505b509250505060405180910390fd5b5084600001600182038154811061265c57fe5b9060005260206000209060020201600101549150509392505050565b600081600001805490509050919050565b60006126aa8473ffffffffffffffffffffffffffffffffffffffff16612af9565b6126b7576001905061289a565b606061282163150b7a0260e01b6126cc611aeb565b888787604051602401808573ffffffffffffffffffffffffffffffffffffffff1681526020018473ffffffffffffffffffffffffffffffffffffffff16815260200183815260200180602001828103825283818151815260200191508051906020019080838360005b83811015612750578082015181840152602081019050612735565b50505050905090810190601f16801561277d5780820380516001836020036101000a031916815260200191505b5095505050505050604051602081830303815290604052907bffffffffffffffffffffffffffffffffffffffffffffffffffffffff19166020820180517bffffffffffffffffffffffffffffffffffffffffffffffffffffffff8381831617835250505050604051806060016040528060328152602001612e7c603291398773ffffffffffffffffffffffffffffffffffffffff16612b0c9092919063ffffffff16565b9050600081806020019051602081101561283a57600080fd5b8101908080519060200190929190505050905063150b7a0260e01b7bffffffffffffffffffffffffffffffffffffffffffffffffffffffff1916817bffffffffffffffffffffffffffffffffffffffffffffffffffffffff191614925050505b949350505050565b600080836001016000848152602001908152602001600020541415905092915050565b600080836001016000848152602001908152602001600020549050600081146129a1576000600182039050600060018660000180549050039050600086600001828154811061291057fe5b906000526020600020015490508087600001848154811061292d57fe5b906000526020600020018190555060018301876001016000838152602001908152602001600020819055508660000180548061296557fe5b600190038181906000526020600020016000905590558660010160008781526020019081526020016000206000905560019450505050506129a7565b60009150505b92915050565b60006129b98383612b24565b612a12578260000182908060018154018082558091505060019003906000526020600020016000909190919091505582600001805490508360010160008481526020019081526020016000208190555060019050612a17565b600090505b92915050565b6000808460010160008581526020019081526020016000205490506000811415612ac457846000016040518060400160405280868152602001858152509080600181540180825580915050600190039060005260206000209060020201600090919091909150600082015181600001556020820151816001015550508460000180549050856001016000868152602001908152602001600020819055506001915050612af2565b82856000016001830381548110612ad757fe5b90600052602060002090600202016001018190555060009150505b9392505050565b600080823b905060008111915050919050565b6060612b1b8484600085612b47565b90509392505050565b600080836001016000848152602001908152602001600020541415905092915050565b606082471015612ba2576040517f08c379a0000000000000000000000000000000000000000000000000000000008152600401808060200182810382526026815260200180612ef86026913960400191505060405180910390fd5b612bab85612af9565b612c1d576040517f08c379a000000000000000000000000000000000000000000000000000000000815260040180806020018281038252601d8152602001807f416464726573733a2063616c6c20746f206e6f6e2d636f6e747261637400000081525060200191505060405180910390fd5b600060608673ffffffffffffffffffffffffffffffffffffffff1685876040518082805190602001908083835b60208310612c6d5780518252602082019150602081019050602083039250612c4a565b6001836020036101000a03801982511681845116808217855250505050505090500191505060006040518083038185875af1925050503d8060008114612ccf576040519150601f19603f3d011682016040523d82523d6000602084013e612cd4565b606091505b5091509150612ce4828286612cf0565b92505050949350505050565b60608315612d0057829050612db5565b600083511115612d135782518084602001fd5b816040517f08c379a00000000000000000000000000000000000000000000000000000000081526004018080602001828103825283818151815260200191508051906020019080838360005b83811015612d7a578082015181840152602081019050612d5f565b50505050905090810190601f168015612da75780820380516001836020036101000a031916815260200191505b509250505060405180910390fd5b9392505050565b828054600181600116156101000203166002900490600052602060002090601f016020900481019282601f10612dfd57805160ff1916838001178555612e2b565b82800160010185558215612e2b579182015b82811115612e2a578251825591602001919060010190612e0f565b5b509050612e389190612e3c565b5090565b5b80821115612e55576000816000905550600101612e3d565b509056fe456e756d657261626c655365743a20696e646578206f7574206f6620626f756e64734552433732313a207472616e7366657220746f206e6f6e20455243373231526563656976657220696d706c656d656e7465724f776e61626c653a206e6577206f776e657220697320746865207a65726f20616464726573734552433732313a207472616e7366657220746f20746865207a65726f2061646472657373416464726573733a20696e73756666696369656e742062616c616e636520666f722063616c6c4552433732313a206f70657261746f7220717565727920666f72206e6f6e6578697374656e7420746f6b656e4552433732313a20617070726f76652063616c6c6572206973206e6f74206f776e6572206e6f7220617070726f76656420666f7220616c6c4552433732313a2062616c616e636520717565727920666f7220746865207a65726f20616464726573734552433732313a206f776e657220717565727920666f72206e6f6e6578697374656e7420746f6b656e456e756d657261626c654d61703a20696e646578206f7574206f6620626f756e64734552433732313a20617070726f76656420717565727920666f72206e6f6e6578697374656e7420746f6b656e4552433732314d657461646174613a2055524920736574206f66206e6f6e6578697374656e7420746f6b656e4552433732313a207472616e73666572206f6620746f6b656e2074686174206973206e6f74206f776e4552433732314d657461646174613a2055524920717565727920666f72206e6f6e6578697374656e7420746f6b656e4552433732313a20617070726f76616c20746f2063757272656e74206f776e65724552433732313a207472616e736665722063616c6c6572206973206e6f74206f776e6572206e6f7220617070726f766564a2646970667358221220d537f49d701b2e9bf09056afad901a50e3895d85090141a302cb999baeeda69f64736f6c63430007010033a26469706673582212204279fec7839e0fa6e7b5c2c8609fd3cc1b747244f3a8064baf124806e0437ff464736f6c63430007010033",
  "linkReferences": {},
  "deployedLinkReferences": {}
}