{
  "_format": "hh-sol-artifact-1",
  "contractName": "AuctionFactory",
  "sourceName": "blockchain/contracts/AuctionFactory.sol",
  "abi": [
    {
      "inputs": [
        {
          "internalType": "uint256",
          "name": "",
          "type": "uint256"
        }
      ],
      "name": "auctionNFTs",
      "outputs": [
        {
          "internalType": "contract AuctionNFT",
          "name": "",
          "type": "address"
        }
      ],
      "stateMutability": "view",
      "type": "function"
    },
    {
      "inputs": [
        {
          "internalType": "uint256",
          "name": "",
          "type": "uint256"
        }
      ],
      "name": "auctions",
      "outputs": [
        {
          "internalType": "contract Auction",
          "name": "",
          "type": "address"
        }
      ],
      "stateMutability": "view",
      "type": "function"
    },
    {
      "inputs": [
        {
          "internalType": "uint256",
          "name": "",
          "type": "uint256"
        }
      ],
      "name": "auctionsAddresses",
      "outputs": [
        {
          "internalType": "address",
          "name": "",
          "type": "address"
        }
      ],
      "stateMutability": "view",
      "type": "function"
    },
    {
      "inputs": [
        {
          "internalType": "uint256",
          "name": "",
          "type": "uint256"
        }
      ],
      "name": "auctionsNFTAddresses",
      "outputs": [
        {
          "internalType": "address",
          "name": "",
          "type": "address"
        }
      ],
      "stateMutability": "view",
      "type": "function"
    },
    {
      "inputs": [
        {
          "internalType": "uint256",
          "name": "number",
          "type": "uint256"
        }
      ],
      "name": "checkAuction",
      "outputs": [
        {
          "internalType": "address",
          "name": "auc",
          "type": "address"
        }
      ],
      "stateMutability": "view",
      "type": "function"
    },
    {
      "inputs": [],
      "name": "getAllAuctionsAddresses",
      "outputs": [
        {
          "internalType": "address[]",
          "name": "listOfAuctions",
          "type": "address[]"
        }
      ],
      "stateMutability": "view",
      "type": "function"
    },
    {
      "inputs": [
        {
          "internalType": "uint256",
          "name": "number",
          "type": "uint256"
        }
      ],
      "name": "getAuciton",
      "outputs": [
        {
          "internalType": "contract Auction",
          "name": "auc",
          "type": "address"
        }
      ],
      "stateMutability": "view",
      "type": "function"
    },
    {
      "inputs": [],
      "name": "getContractCount",
      "outputs": [
        {
          "internalType": "uint256",
          "name": "",
          "type": "uint256"
        }
      ],
      "stateMutability": "view",
      "type": "function"
    },
    {
      "inputs": [
        {
          "internalType": "string",
          "name": "name",
          "type": "string"
        },
        {
          "internalType": "uint256",
          "name": "initialBid",
          "type": "uint256"
        },
        {
          "internalType": "uint256",
          "name": "time",
          "type": "uint256"
        },
        {
          "internalType": "address",
          "name": "recipient",
          "type": "address"
        },
        {
          "internalType": "string",
          "name": "tokenURI",
          "type": "string"
        }
      ],
      "name": "newAuction",
      "outputs": [
        {
          "internalType": "contract Auction",
          "name": "newContract",
          "type": "address"
        }
      ],
      "stateMutability": "nonpayable",
      "type": "function"
    }
  ],
  "bytecode": "0x608060405234801561001057600080fd5b50614de6806100206000396000f3fe60806040523480156200001157600080fd5b5060043610620000a05760003560e01c8063571a26a0116200006f578063571a26a014620002115780638e2542c4146200026c5780639399869d1462000425578063c53db8c71462000445578063fd8d9ec714620004a057620000a0565b80631295490414620000a55780631e34424e146200010057806320c03948146200015b57806353e114fe14620001b6575b600080fd5b620000d460048036036020811015620000bd57600080fd5b810190808035906020019092919050505062000503565b604051808273ffffffffffffffffffffffffffffffffffffffff16815260200191505060405180910390f35b6200012f600480360360208110156200011857600080fd5b810190808035906020019092919050505062000540565b604051808273ffffffffffffffffffffffffffffffffffffffff16815260200191505060405180910390f35b6200018a600480360360208110156200017357600080fd5b810190808035906020019092919050505062000581565b604051808273ffffffffffffffffffffffffffffffffffffffff16815260200191505060405180910390f35b620001e560048036036020811015620001ce57600080fd5b8101908080359060200190929190505050620005c3565b604051808273ffffffffffffffffffffffffffffffffffffffff16815260200191505060405180910390f35b62000240600480360360208110156200022957600080fd5b810190808035906020019092919050505062000600565b604051808273ffffffffffffffffffffffffffffffffffffffff16815260200191505060405180910390f35b620003f9600480360360a08110156200028457600080fd5b8101908080359060200190640100000000811115620002a257600080fd5b820183602082011115620002b557600080fd5b80359060200191846001830284011164010000000083111715620002d857600080fd5b91908080601f016020809104026020016040519081016040528093929190818152602001838380828437600081840152601f19601f8201169050808301925050505050505091929192908035906020019092919080359060200190929190803573ffffffffffffffffffffffffffffffffffffffff169060200190929190803590602001906401000000008111156200037057600080fd5b8201836020820111156200038357600080fd5b80359060200191846001830284011164010000000083111715620003a657600080fd5b91908080601f016020809104026020016040519081016040528093929190818152602001838380828437600081840152601f19601f8201169050808301925050505050505091929192905050506200063d565b604051808273ffffffffffffffffffffffffffffffffffffffff16815260200191505060405180910390f35b6200042f6200090d565b6040518082815260200191505060405180910390f35b62000474600480360360208110156200045d57600080fd5b810190808035906020019092919050505062000919565b604051808273ffffffffffffffffffffffffffffffffffffffff16815260200191505060405180910390f35b620004aa62000956565b6040518080602001828103825283818151815260200191508051906020019060200280838360005b83811015620004ef578082015181840152602081019050620004d2565b505050509050019250505060405180910390f35b600281815481106200051157fe5b906000526020600020016000915054906101000a900473ffffffffffffffffffffffffffffffffffffffff1681565b60008082815481106200054f57fe5b9060005260206000200160009054906101000a900473ffffffffffffffffffffffffffffffffffffffff169050919050565b6000600282815481106200059157fe5b9060005260206000200160009054906101000a900473ffffffffffffffffffffffffffffffffffffffff169050919050565b60038181548110620005d157fe5b906000526020600020016000915054906101000a900473ffffffffffffffffffffffffffffffffffffffff1681565b600081815481106200060e57fe5b906000526020600020016000915054906101000a900473ffffffffffffffffffffffffffffffffffffffff1681565b6000806040516200064e90620009e6565b604051809103906000f0801580156200066b573d6000803e3d6000fd5b5090508073ffffffffffffffffffffffffffffffffffffffff1663eacabe1485856040518363ffffffff1660e01b8152600401808373ffffffffffffffffffffffffffffffffffffffff16815260200180602001828103825283818151815260200191508051906020019080838360005b83811015620006f9578082015181840152602081019050620006dc565b50505050905090810190601f168015620007275780820380516001836020036101000a031916815260200191505b509350505050602060405180830381600087803b1580156200074857600080fd5b505af11580156200075d573d6000803e3d6000fd5b505050506040513d60208110156200077457600080fd5b81019080805190602001909291905050505060008588886040516200079990620009f4565b8084815260200180602001838152602001828103825284818151815260200191508051906020019080838360005b83811015620007e4578082015181840152602081019050620007c7565b50505050905090810190601f168015620008125780820380516001836020036101000a031916815260200191505b50945050505050604051809103906000f08015801562000836573d6000803e3d6000fd5b5090506000819080600181540180825580915050600190039060005260206000200160009091909190916101000a81548173ffffffffffffffffffffffffffffffffffffffff021916908373ffffffffffffffffffffffffffffffffffffffff1602179055506002819080600181540180825580915050600190039060005260206000200160009091909190916101000a81548173ffffffffffffffffffffffffffffffffffffffff021916908373ffffffffffffffffffffffffffffffffffffffff160217905550809250505095945050505050565b60008080549050905090565b600181815481106200092757fe5b906000526020600020016000915054906101000a900473ffffffffffffffffffffffffffffffffffffffff1681565b60606002805480602002602001604051908101604052809291908181526020018280548015620009dc57602002820191906000526020600020905b8160009054906101000a900473ffffffffffffffffffffffffffffffffffffffff1673ffffffffffffffffffffffffffffffffffffffff168152602001906001019080831162000991575b5050505050905090565b6134598062000a0383390190565b610f558062003e5c8339019056fe60806040523480156200001157600080fd5b506040518060400160405280600a81526020017f41756374696f6e4e4654000000000000000000000000000000000000000000008152506040518060400160405280600381526020017f4e46540000000000000000000000000000000000000000000000000000000000815250620000966301ffc9a760e01b620001c960201b60201c565b8160069080519060200190620000ae929190620002da565b508060079080519060200190620000c7929190620002da565b50620000e06380ac58cd60e01b620001c960201b60201c565b620000f8635b5e139f60e01b620001c960201b60201c565b6200011063780e9d6360e01b620001c960201b60201c565b5050600062000124620002d260201b60201c565b905080600a60006101000a81548173ffffffffffffffffffffffffffffffffffffffff021916908373ffffffffffffffffffffffffffffffffffffffff1602179055508073ffffffffffffffffffffffffffffffffffffffff16600073ffffffffffffffffffffffffffffffffffffffff167f8be0079c531659141344cd1fd0a4f28419497f9722a3daafe3b4186f6b6457e060405160405180910390a35062000380565b63ffffffff60e01b817bffffffffffffffffffffffffffffffffffffffffffffffffffffffff1916141562000266576040517f08c379a000000000000000000000000000000000000000000000000000000000815260040180806020018281038252601c8152602001807f4552433136353a20696e76616c696420696e746572666163652069640000000081525060200191505060405180910390fd5b6001600080837bffffffffffffffffffffffffffffffffffffffffffffffffffffffff19167bffffffffffffffffffffffffffffffffffffffffffffffffffffffff1916815260200190815260200160002060006101000a81548160ff02191690831515021790555050565b600033905090565b828054600181600116156101000203166002900490600052602060002090601f016020900481019282601f106200031d57805160ff19168380011785556200034e565b828001600101855582156200034e579182015b828111156200034d57825182559160200191906001019062000330565b5b5090506200035d919062000361565b5090565b5b808211156200037c57600081600090555060010162000362565b5090565b6130c980620003906000396000f3fe608060405234801561001057600080fd5b50600436106101375760003560e01c80636c0360eb116100b8578063a22cb4651161007c578063a22cb4651461065a578063b88d4fde146106aa578063c87b56dd146107af578063e985e9c514610856578063eacabe14146108d0578063f2fde38b146109bf57610137565b80636c0360eb146104be57806370a0823114610541578063715018a6146105995780638da5cb5b146105a357806395d89b41146105d757610137565b806323b872dd116100ff57806323b872dd146102e65780632f745c591461035457806342842e0e146103b65780634f6ccce7146104245780636352211e1461046657610137565b806301ffc9a71461013c57806306fdde031461019f578063081812fc14610222578063095ea7b31461027a57806318160ddd146102c8575b600080fd5b6101876004803603602081101561015257600080fd5b8101908080357bffffffffffffffffffffffffffffffffffffffffffffffffffffffff19169060200190929190505050610a03565b60405180821515815260200191505060405180910390f35b6101a7610a6a565b6040518080602001828103825283818151815260200191508051906020019080838360005b838110156101e75780820151818401526020810190506101cc565b50505050905090810190601f1680156102145780820380516001836020036101000a031916815260200191505b509250505060405180910390f35b61024e6004803603602081101561023857600080fd5b8101908080359060200190929190505050610b0c565b604051808273ffffffffffffffffffffffffffffffffffffffff16815260200191505060405180910390f35b6102c66004803603604081101561029057600080fd5b81019080803573ffffffffffffffffffffffffffffffffffffffff16906020019092919080359060200190929190505050610ba7565b005b6102d0610ceb565b6040518082815260200191505060405180910390f35b610352600480360360608110156102fc57600080fd5b81019080803573ffffffffffffffffffffffffffffffffffffffff169060200190929190803573ffffffffffffffffffffffffffffffffffffffff16906020019092919080359060200190929190505050610cfc565b005b6103a06004803603604081101561036a57600080fd5b81019080803573ffffffffffffffffffffffffffffffffffffffff16906020019092919080359060200190929190505050610d72565b6040518082815260200191505060405180910390f35b610422600480360360608110156103cc57600080fd5b81019080803573ffffffffffffffffffffffffffffffffffffffff169060200190929190803573ffffffffffffffffffffffffffffffffffffffff16906020019092919080359060200190929190505050610dcd565b005b6104506004803603602081101561043a57600080fd5b8101908080359060200190929190505050610ded565b6040518082815260200191505060405180910390f35b6104926004803603602081101561047c57600080fd5b8101908080359060200190929190505050610e10565b604051808273ffffffffffffffffffffffffffffffffffffffff16815260200191505060405180910390f35b6104c6610e47565b6040518080602001828103825283818151815260200191508051906020019080838360005b838110156105065780820151818401526020810190506104eb565b50505050905090810190601f1680156105335780820380516001836020036101000a031916815260200191505b509250505060405180910390f35b6105836004803603602081101561055757600080fd5b81019080803573ffffffffffffffffffffffffffffffffffffffff169060200190929190505050610ee9565b6040518082815260200191505060405180910390f35b6105a1610fbe565b005b6105ab61112e565b604051808273ffffffffffffffffffffffffffffffffffffffff16815260200191505060405180910390f35b6105df611158565b6040518080602001828103825283818151815260200191508051906020019080838360005b8381101561061f578082015181840152602081019050610604565b50505050905090810190601f16801561064c5780820380516001836020036101000a031916815260200191505b509250505060405180910390f35b6106a86004803603604081101561067057600080fd5b81019080803573ffffffffffffffffffffffffffffffffffffffff1690602001909291908035151590602001909291905050506111fa565b005b6107ad600480360360808110156106c057600080fd5b81019080803573ffffffffffffffffffffffffffffffffffffffff169060200190929190803573ffffffffffffffffffffffffffffffffffffffff169060200190929190803590602001909291908035906020019064010000000081111561072757600080fd5b82018360208201111561073957600080fd5b8035906020019184600183028401116401000000008311171561075b57600080fd5b91908080601f016020809104026020016040519081016040528093929190818152602001838380828437600081840152601f19601f8201169050808301925050505050505091929192905050506113b0565b005b6107db600480360360208110156107c557600080fd5b8101908080359060200190929190505050611428565b6040518080602001828103825283818151815260200191508051906020019080838360005b8381101561081b578082015181840152602081019050610800565b50505050905090810190601f1680156108485780820380516001836020036101000a031916815260200191505b509250505060405180910390f35b6108b86004803603604081101561086c57600080fd5b81019080803573ffffffffffffffffffffffffffffffffffffffff169060200190929190803573ffffffffffffffffffffffffffffffffffffffff1690602001909291905050506116f9565b60405180821515815260200191505060405180910390f35b6109a9600480360360408110156108e657600080fd5b81019080803573ffffffffffffffffffffffffffffffffffffffff1690602001909291908035906020019064010000000081111561092357600080fd5b82018360208201111561093557600080fd5b8035906020019184600183028401116401000000008311171561095757600080fd5b91908080601f016020809104026020016040519081016040528093929190818152602001838380828437600081840152601f19601f82011690508083019250505050505050919291929050505061178d565b6040518082815260200191505060405180910390f35b610a01600480360360208110156109d557600080fd5b81019080803573ffffffffffffffffffffffffffffffffffffffff169060200190929190505050611874565b005b6000806000837bffffffffffffffffffffffffffffffffffffffffffffffffffffffff19167bffffffffffffffffffffffffffffffffffffffffffffffffffffffff1916815260200190815260200160002060009054906101000a900460ff169050919050565b606060068054600181600116156101000203166002900480601f016020809104026020016040519081016040528092919081815260200182805460018160011615610100020316600290048015610b025780601f10610ad757610100808354040283529160200191610b02565b820191906000526020600020905b815481529060010190602001808311610ae557829003601f168201915b5050505050905090565b6000610b1782611a69565b610b6c576040517f08c379a000000000000000000000000000000000000000000000000000000000815260040180806020018281038252602c815260200180612f92602c913960400191505060405180910390fd5b6004600083815260200190815260200160002060009054906101000a900473ffffffffffffffffffffffffffffffffffffffff169050919050565b6000610bb282610e10565b90508073ffffffffffffffffffffffffffffffffffffffff168373ffffffffffffffffffffffffffffffffffffffff161415610c39576040517f08c379a00000000000000000000000000000000000000000000000000000000081526004018080602001828103825260218152602001806130426021913960400191505060405180910390fd5b8073ffffffffffffffffffffffffffffffffffffffff16610c58611a86565b73ffffffffffffffffffffffffffffffffffffffff161480610c875750610c8681610c81611a86565b6116f9565b5b610cdc576040517f08c379a0000000000000000000000000000000000000000000000000000000008152600401808060200182810382526038815260200180612ee56038913960400191505060405180910390fd5b610ce68383611a8e565b505050565b6000610cf76002611b47565b905090565b610d0d610d07611a86565b82611b5c565b610d62576040517f08c379a00000000000000000000000000000000000000000000000000000000081526004018080602001828103825260318152602001806130636031913960400191505060405180910390fd5b610d6d838383611c50565b505050565b6000610dc582600160008673ffffffffffffffffffffffffffffffffffffffff1673ffffffffffffffffffffffffffffffffffffffff168152602001908152602001600020611e9390919063ffffffff16565b905092915050565b610de8838383604051806020016040528060008152506113b0565b505050565b600080610e04836002611ead90919063ffffffff16565b50905080915050919050565b6000610e4082604051806060016040528060298152602001612f47602991396002611ed99092919063ffffffff16565b9050919050565b606060098054600181600116156101000203166002900480601f016020809104026020016040519081016040528092919081815260200182805460018160011615610100020316600290048015610edf5780601f10610eb457610100808354040283529160200191610edf565b820191906000526020600020905b815481529060010190602001808311610ec257829003601f168201915b5050505050905090565b60008073ffffffffffffffffffffffffffffffffffffffff168273ffffffffffffffffffffffffffffffffffffffff161415610f70576040517f08c379a000000000000000000000000000000000000000000000000000000000815260040180806020018281038252602a815260200180612f1d602a913960400191505060405180910390fd5b610fb7600160008473ffffffffffffffffffffffffffffffffffffffff1673ffffffffffffffffffffffffffffffffffffffff168152602001908152602001600020611ef8565b9050919050565b610fc6611a86565b73ffffffffffffffffffffffffffffffffffffffff16610fe461112e565b73ffffffffffffffffffffffffffffffffffffffff161461106d576040517f08c379a00000000000000000000000000000000000000000000000000000000081526004018080602001828103825260208152602001807f4f776e61626c653a2063616c6c6572206973206e6f7420746865206f776e657281525060200191505060405180910390fd5b600073ffffffffffffffffffffffffffffffffffffffff16600a60009054906101000a900473ffffffffffffffffffffffffffffffffffffffff1673ffffffffffffffffffffffffffffffffffffffff167f8be0079c531659141344cd1fd0a4f28419497f9722a3daafe3b4186f6b6457e060405160405180910390a36000600a60006101000a81548173ffffffffffffffffffffffffffffffffffffffff021916908373ffffffffffffffffffffffffffffffffffffffff160217905550565b6000600a60009054906101000a900473ffffffffffffffffffffffffffffffffffffffff16905090565b606060078054600181600116156101000203166002900480601f0160208091040260200160405190810160405280929190818152602001828054600181600116156101000203166002900480156111f05780601f106111c5576101008083540402835291602001916111f0565b820191906000526020600020905b8154815290600101906020018083116111d357829003601f168201915b5050505050905090565b611202611a86565b73ffffffffffffffffffffffffffffffffffffffff168273ffffffffffffffffffffffffffffffffffffffff1614156112a3576040517f08c379a00000000000000000000000000000000000000000000000000000000081526004018080602001828103825260198152602001807f4552433732313a20617070726f766520746f2063616c6c65720000000000000081525060200191505060405180910390fd5b80600560006112b0611a86565b73ffffffffffffffffffffffffffffffffffffffff1673ffffffffffffffffffffffffffffffffffffffff16815260200190815260200160002060008473ffffffffffffffffffffffffffffffffffffffff1673ffffffffffffffffffffffffffffffffffffffff16815260200190815260200160002060006101000a81548160ff0219169083151502179055508173ffffffffffffffffffffffffffffffffffffffff1661135d611a86565b73ffffffffffffffffffffffffffffffffffffffff167f17307eab39ab6107e8899845ad3d59bd9653f200f220920489ca2b5937696c318360405180821515815260200191505060405180910390a35050565b6113c16113bb611a86565b83611b5c565b611416576040517f08c379a00000000000000000000000000000000000000000000000000000000081526004018080602001828103825260318152602001806130636031913960400191505060405180910390fd5b61142284848484611f0d565b50505050565b606061143382611a69565b611488576040517f08c379a000000000000000000000000000000000000000000000000000000000815260040180806020018281038252602f815260200180613013602f913960400191505060405180910390fd5b6060600860008481526020019081526020016000208054600181600116156101000203166002900480601f0160208091040260200160405190810160405280929190818152602001828054600181600116156101000203166002900480156115315780601f1061150657610100808354040283529160200191611531565b820191906000526020600020905b81548152906001019060200180831161151457829003601f168201915b505050505090506060611542610e47565b90506000815114156115585781925050506116f4565b6000825111156116295780826040516020018083805190602001908083835b6020831061159a5780518252602082019150602081019050602083039250611577565b6001836020036101000a03801982511681845116808217855250505050505090500182805190602001908083835b602083106115eb57805182526020820191506020810190506020830392506115c8565b6001836020036101000a03801982511681845116808217855250505050505090500192505050604051602081830303815290604052925050506116f4565b8061163385611f7f565b6040516020018083805190602001908083835b602083106116695780518252602082019150602081019050602083039250611646565b6001836020036101000a03801982511681845116808217855250505050505090500182805190602001908083835b602083106116ba5780518252602082019150602081019050602083039250611697565b6001836020036101000a03801982511681845116808217855250505050505090500192505050604051602081830303815290604052925050505b919050565b6000600560008473ffffffffffffffffffffffffffffffffffffffff1673ffffffffffffffffffffffffffffffffffffffff16815260200190815260200160002060008373ffffffffffffffffffffffffffffffffffffffff1673ffffffffffffffffffffffffffffffffffffffff16815260200190815260200160002060009054906101000a900460ff16905092915050565b6000611797611a86565b73ffffffffffffffffffffffffffffffffffffffff166117b561112e565b73ffffffffffffffffffffffffffffffffffffffff161461183e576040517f08c379a00000000000000000000000000000000000000000000000000000000081526004018080602001828103825260208152602001807f4f776e61626c653a2063616c6c6572206973206e6f7420746865206f776e657281525060200191505060405180910390fd5b611848600b6120c6565b6000611854600b6120dc565b905061186084826120ea565b61186a81846122de565b8091505092915050565b61187c611a86565b73ffffffffffffffffffffffffffffffffffffffff1661189a61112e565b73ffffffffffffffffffffffffffffffffffffffff1614611923576040517f08c379a00000000000000000000000000000000000000000000000000000000081526004018080602001828103825260208152602001807f4f776e61626c653a2063616c6c6572206973206e6f7420746865206f776e657281525060200191505060405180910390fd5b600073ffffffffffffffffffffffffffffffffffffffff168173ffffffffffffffffffffffffffffffffffffffff1614156119a9576040517f08c379a0000000000000000000000000000000000000000000000000000000008152600401808060200182810382526026815260200180612e496026913960400191505060405180910390fd5b8073ffffffffffffffffffffffffffffffffffffffff16600a60009054906101000a900473ffffffffffffffffffffffffffffffffffffffff1673ffffffffffffffffffffffffffffffffffffffff167f8be0079c531659141344cd1fd0a4f28419497f9722a3daafe3b4186f6b6457e060405160405180910390a380600a60006101000a81548173ffffffffffffffffffffffffffffffffffffffff021916908373ffffffffffffffffffffffffffffffffffffffff16021790555050565b6000611a7f82600261236890919063ffffffff16565b9050919050565b600033905090565b816004600083815260200190815260200160002060006101000a81548173ffffffffffffffffffffffffffffffffffffffff021916908373ffffffffffffffffffffffffffffffffffffffff160217905550808273ffffffffffffffffffffffffffffffffffffffff16611b0183610e10565b73ffffffffffffffffffffffffffffffffffffffff167f8c5be1e5ebec7d5bd14f71427d1e84f3dd0314c0f7b2291e5b200ac8c7c3b92560405160405180910390a45050565b6000611b5582600001612382565b9050919050565b6000611b6782611a69565b611bbc576040517f08c379a000000000000000000000000000000000000000000000000000000000815260040180806020018281038252602c815260200180612eb9602c913960400191505060405180910390fd5b6000611bc783610e10565b90508073ffffffffffffffffffffffffffffffffffffffff168473ffffffffffffffffffffffffffffffffffffffff161480611c3657508373ffffffffffffffffffffffffffffffffffffffff16611c1e84610b0c565b73ffffffffffffffffffffffffffffffffffffffff16145b80611c475750611c4681856116f9565b5b91505092915050565b8273ffffffffffffffffffffffffffffffffffffffff16611c7082610e10565b73ffffffffffffffffffffffffffffffffffffffff1614611cdc576040517f08c379a0000000000000000000000000000000000000000000000000000000008152600401808060200182810382526029815260200180612fea6029913960400191505060405180910390fd5b600073ffffffffffffffffffffffffffffffffffffffff168273ffffffffffffffffffffffffffffffffffffffff161415611d62576040517f08c379a0000000000000000000000000000000000000000000000000000000008152600401808060200182810382526024815260200180612e6f6024913960400191505060405180910390fd5b611d6d838383612393565b611d78600082611a8e565b611dc981600160008673ffffffffffffffffffffffffffffffffffffffff1673ffffffffffffffffffffffffffffffffffffffff16815260200190815260200160002061239890919063ffffffff16565b50611e1b81600160008573ffffffffffffffffffffffffffffffffffffffff1673ffffffffffffffffffffffffffffffffffffffff1681526020019081526020016000206123b290919063ffffffff16565b50611e32818360026123cc9092919063ffffffff16565b50808273ffffffffffffffffffffffffffffffffffffffff168473ffffffffffffffffffffffffffffffffffffffff167fddf252ad1be2c89b69c2b068fc378daa952ba7f163c4a11628f55a4df523b3ef60405160405180910390a4505050565b6000611ea28360000183612401565b60001c905092915050565b600080600080611ec08660000186612484565b915091508160001c8160001c9350935050509250929050565b6000611eec846000018460001b8461251d565b60001c90509392505050565b6000611f0682600001612613565b9050919050565b611f18848484611c50565b611f2484848484612624565b611f79576040517f08c379a0000000000000000000000000000000000000000000000000000000008152600401808060200182810382526032815260200180612e176032913960400191505060405180910390fd5b50505050565b60606000821415611fc7576040518060400160405280600181526020017f300000000000000000000000000000000000000000000000000000000000000081525090506120c1565b600082905060005b60008214611ff1578080600101915050600a8281611fe957fe5b049150611fcf565b60608167ffffffffffffffff8111801561200a57600080fd5b506040519080825280601f01601f19166020018201604052801561203d5781602001600182028036833780820191505090505b50905060006001830390508593505b600084146120b957600a848161205e57fe5b0660300160f81b8282806001900393508151811061207857fe5b60200101907effffffffffffffffffffffffffffffffffffffffffffffffffffffffffffff1916908160001a905350600a84816120b157fe5b04935061204c565b819450505050505b919050565b6001816000016000828254019250508190555050565b600081600001549050919050565b600073ffffffffffffffffffffffffffffffffffffffff168273ffffffffffffffffffffffffffffffffffffffff16141561218d576040517f08c379a00000000000000000000000000000000000000000000000000000000081526004018080602001828103825260208152602001807f4552433732313a206d696e7420746f20746865207a65726f206164647265737381525060200191505060405180910390fd5b61219681611a69565b15612209576040517f08c379a000000000000000000000000000000000000000000000000000000000815260040180806020018281038252601c8152602001807f4552433732313a20746f6b656e20616c7265616479206d696e7465640000000081525060200191505060405180910390fd5b61221560008383612393565b61226681600160008573ffffffffffffffffffffffffffffffffffffffff1673ffffffffffffffffffffffffffffffffffffffff1681526020019081526020016000206123b290919063ffffffff16565b5061227d818360026123cc9092919063ffffffff16565b50808273ffffffffffffffffffffffffffffffffffffffff16600073ffffffffffffffffffffffffffffffffffffffff167fddf252ad1be2c89b69c2b068fc378daa952ba7f163c4a11628f55a4df523b3ef60405160405180910390a45050565b6122e782611a69565b61233c576040517f08c379a000000000000000000000000000000000000000000000000000000000815260040180806020018281038252602c815260200180612fbe602c913960400191505060405180910390fd5b80600860008481526020019081526020016000209080519060200190612363929190612d57565b505050565b600061237a836000018360001b61283d565b905092915050565b600081600001805490509050919050565b505050565b60006123aa836000018360001b612860565b905092915050565b60006123c4836000018360001b612948565b905092915050565b60006123f8846000018460001b8473ffffffffffffffffffffffffffffffffffffffff1660001b6129b8565b90509392505050565b600081836000018054905011612462576040517f08c379a0000000000000000000000000000000000000000000000000000000008152600401808060200182810382526022815260200180612df56022913960400191505060405180910390fd5b82600001828154811061247157fe5b9060005260206000200154905092915050565b600080828460000180549050116124e6576040517f08c379a0000000000000000000000000000000000000000000000000000000008152600401808060200182810382526022815260200180612f706022913960400191505060405180910390fd5b60008460000184815481106124f757fe5b906000526020600020906002020190508060000154816001015492509250509250929050565b600080846001016000858152602001908152602001600020549050600081141583906125e4576040517f08c379a00000000000000000000000000000000000000000000000000000000081526004018080602001828103825283818151815260200191508051906020019080838360005b838110156125a957808201518184015260208101905061258e565b50505050905090810190601f1680156125d65780820380516001836020036101000a031916815260200191505b509250505060405180910390fd5b508460000160018203815481106125f757fe5b9060005260206000209060020201600101549150509392505050565b600081600001805490509050919050565b60006126458473ffffffffffffffffffffffffffffffffffffffff16612a94565b6126525760019050612835565b60606127bc63150b7a0260e01b612667611a86565b888787604051602401808573ffffffffffffffffffffffffffffffffffffffff1681526020018473ffffffffffffffffffffffffffffffffffffffff16815260200183815260200180602001828103825283818151815260200191508051906020019080838360005b838110156126eb5780820151818401526020810190506126d0565b50505050905090810190601f1680156127185780820380516001836020036101000a031916815260200191505b5095505050505050604051602081830303815290604052907bffffffffffffffffffffffffffffffffffffffffffffffffffffffff19166020820180517bffffffffffffffffffffffffffffffffffffffffffffffffffffffff8381831617835250505050604051806060016040528060328152602001612e17603291398773ffffffffffffffffffffffffffffffffffffffff16612aa79092919063ffffffff16565b905060008180602001905160208110156127d557600080fd5b8101908080519060200190929190505050905063150b7a0260e01b7bffffffffffffffffffffffffffffffffffffffffffffffffffffffff1916817bffffffffffffffffffffffffffffffffffffffffffffffffffffffff191614925050505b949350505050565b600080836001016000848152602001908152602001600020541415905092915050565b6000808360010160008481526020019081526020016000205490506000811461293c57600060018203905060006001866000018054905003905060008660000182815481106128ab57fe5b90600052602060002001549050808760000184815481106128c857fe5b906000526020600020018190555060018301876001016000838152602001908152602001600020819055508660000180548061290057fe5b60019003818190600052602060002001600090559055866001016000878152602001908152602001600020600090556001945050505050612942565b60009150505b92915050565b60006129548383612abf565b6129ad5782600001829080600181540180825580915050600190039060005260206000200160009091909190915055826000018054905083600101600084815260200190815260200160002081905550600190506129b2565b600090505b92915050565b6000808460010160008581526020019081526020016000205490506000811415612a5f57846000016040518060400160405280868152602001858152509080600181540180825580915050600190039060005260206000209060020201600090919091909150600082015181600001556020820151816001015550508460000180549050856001016000868152602001908152602001600020819055506001915050612a8d565b82856000016001830381548110612a7257fe5b90600052602060002090600202016001018190555060009150505b9392505050565b600080823b905060008111915050919050565b6060612ab68484600085612ae2565b90509392505050565b600080836001016000848152602001908152602001600020541415905092915050565b606082471015612b3d576040517f08c379a0000000000000000000000000000000000000000000000000000000008152600401808060200182810382526026815260200180612e936026913960400191505060405180910390fd5b612b4685612a94565b612bb8576040517f08c379a000000000000000000000000000000000000000000000000000000000815260040180806020018281038252601d8152602001807f416464726573733a2063616c6c20746f206e6f6e2d636f6e747261637400000081525060200191505060405180910390fd5b600060608673ffffffffffffffffffffffffffffffffffffffff1685876040518082805190602001908083835b60208310612c085780518252602082019150602081019050602083039250612be5565b6001836020036101000a03801982511681845116808217855250505050505090500191505060006040518083038185875af1925050503d8060008114612c6a576040519150601f19603f3d011682016040523d82523d6000602084013e612c6f565b606091505b5091509150612c7f828286612c8b565b92505050949350505050565b60608315612c9b57829050612d50565b600083511115612cae5782518084602001fd5b816040517f08c379a00000000000000000000000000000000000000000000000000000000081526004018080602001828103825283818151815260200191508051906020019080838360005b83811015612d15578082015181840152602081019050612cfa565b50505050905090810190601f168015612d425780820380516001836020036101000a031916815260200191505b509250505060405180910390fd5b9392505050565b828054600181600116156101000203166002900490600052602060002090601f016020900481019282601f10612d9857805160ff1916838001178555612dc6565b82800160010185558215612dc6579182015b82811115612dc5578251825591602001919060010190612daa565b5b509050612dd39190612dd7565b5090565b5b80821115612df0576000816000905550600101612dd8565b509056fe456e756d657261626c655365743a20696e646578206f7574206f6620626f756e64734552433732313a207472616e7366657220746f206e6f6e20455243373231526563656976657220696d706c656d656e7465724f776e61626c653a206e6577206f776e657220697320746865207a65726f20616464726573734552433732313a207472616e7366657220746f20746865207a65726f2061646472657373416464726573733a20696e73756666696369656e742062616c616e636520666f722063616c6c4552433732313a206f70657261746f7220717565727920666f72206e6f6e6578697374656e7420746f6b656e4552433732313a20617070726f76652063616c6c6572206973206e6f74206f776e6572206e6f7220617070726f76656420666f7220616c6c4552433732313a2062616c616e636520717565727920666f7220746865207a65726f20616464726573734552433732313a206f776e657220717565727920666f72206e6f6e6578697374656e7420746f6b656e456e756d657261626c654d61703a20696e646578206f7574206f6620626f756e64734552433732313a20617070726f76656420717565727920666f72206e6f6e6578697374656e7420746f6b656e4552433732314d657461646174613a2055524920736574206f66206e6f6e6578697374656e7420746f6b656e4552433732313a207472616e73666572206f6620746f6b656e2074686174206973206e6f74206f776e4552433732314d657461646174613a2055524920717565727920666f72206e6f6e6578697374656e7420746f6b656e4552433732313a20617070726f76616c20746f2063757272656e74206f776e65724552433732313a207472616e736665722063616c6c6572206973206e6f74206f776e6572206e6f7220617070726f766564a264697066735822122062b172621c2323027756aee2e28d6a54a0adcf658957081506b209160bee734164736f6c6343000701003360806040523480156200001157600080fd5b5060405162000f5538038062000f55833981810160405260608110156200003757600080fd5b8101908080519060200190929190805160405193929190846401000000008211156200006257600080fd5b838201915060208201858111156200007957600080fd5b82518660018202830111640100000000821117156200009757600080fd5b8083526020830192505050908051906020019080838360005b83811015620000cd578082015181840152602081019050620000b0565b50505050905090810190601f168015620000fb5780820380516001836020036101000a031916815260200191505b5060405260200180519060200190929190505050336000806101000a81548173ffffffffffffffffffffffffffffffffffffffff021916908373ffffffffffffffffffffffffffffffffffffffff16021790555082420160018190555081600290805190602001906200017092919062000181565b508060058190555050505062000227565b828054600181600116156101000203166002900490600052602060002090601f016020900481019282601f10620001c457805160ff1916838001178555620001f5565b82800160010185558215620001f5579182015b82811115620001f4578251825591602001919060010190620001d7565b5b50905062000204919062000208565b5090565b5b808211156200022357600081600090555060010162000209565b5090565b610d1e80620002376000396000f3fe6080604052600436106101095760003560e01c80638391293511610095578063d57bde7911610064578063d57bde79146103d9578063d881bf6014610404578063f29463d51461042f578063f2a4a82e14610470578063fafa30db1461050057610109565b806383912935146102b057806386433374146102db57806391f9015714610308578063c819d85a1461034957610109565b80633197cbb6116100dc5780633197cbb6146101bf57806338af3eed146101ea5780633ccfd60b1461022b5780635bec71db1461025857806367ea4abb1461028557610109565b80631998aeef1461010e57806326b387bb146101185780632a24f46c1461017d5780633069ce9a14610194575b600080fd5b61011661052b565b005b34801561012457600080fd5b506101676004803603602081101561013b57600080fd5b81019080803573ffffffffffffffffffffffffffffffffffffffff169060200190929190505050610759565b6040518082815260200191505060405180910390f35b34801561018957600080fd5b50610192610771565b005b3480156101a057600080fd5b506101a961094d565b6040518082815260200191505060405180910390f35b3480156101cb57600080fd5b506101d4610957565b6040518082815260200191505060405180910390f35b3480156101f657600080fd5b506101ff61095d565b604051808273ffffffffffffffffffffffffffffffffffffffff16815260200191505060405180910390f35b34801561023757600080fd5b50610240610981565b60405180821515815260200191505060405180910390f35b34801561026457600080fd5b5061026d610aa5565b60405180821515815260200191505060405180910390f35b34801561029157600080fd5b5061029a610ab8565b6040518082815260200191505060405180910390f35b3480156102bc57600080fd5b506102c5610abe565b6040518082815260200191505060405180910390f35b3480156102e757600080fd5b506102f0610b05565b60405180821515815260200191505060405180910390f35b34801561031457600080fd5b5061031d610b1c565b604051808273ffffffffffffffffffffffffffffffffffffffff16815260200191505060405180910390f35b34801561035557600080fd5b5061035e610b42565b6040518080602001828103825283818151815260200191508051906020019080838360005b8381101561039e578082015181840152602081019050610383565b50505050905090810190601f1680156103cb5780820380516001836020036101000a031916815260200191505b509250505060405180910390f35b3480156103e557600080fd5b506103ee610be4565b6040518082815260200191505060405180910390f35b34801561041057600080fd5b50610419610bea565b6040518082815260200191505060405180910390f35b34801561043b57600080fd5b50610444610bf4565b604051808273ffffffffffffffffffffffffffffffffffffffff16815260200191505060405180910390f35b34801561047c57600080fd5b50610485610c1e565b6040518080602001828103825283818151815260200191508051906020019080838360005b838110156104c55780820151818401526020810190506104aa565b50505050905090810190601f1680156104f25780820380516001836020036101000a031916815260200191505b509250505060405180910390f35b34801561050c57600080fd5b50610515610cbc565b6040518082815260200191505060405180910390f35b6001544211156105a3576040517f08c379a00000000000000000000000000000000000000000000000000000000081526004018080602001828103825260158152602001807f41637469756e656120732d61207465726d696e6174000000000000000000000081525060200191505060405180910390fd5b600454341161061a576040517f08c379a00000000000000000000000000000000000000000000000000000000081526004018080602001828103825260148152602001807f4269642d756c20657374652070726561206d696300000000000000000000000081525060200191505060405180910390fd5b6000600454146106965760045460076000600360009054906101000a900473ffffffffffffffffffffffffffffffffffffffff1673ffffffffffffffffffffffffffffffffffffffff1673ffffffffffffffffffffffffffffffffffffffff168152602001908152602001600020600082825401925050819055505b33600360006101000a81548173ffffffffffffffffffffffffffffffffffffffff021916908373ffffffffffffffffffffffffffffffffffffffff160217905550346004819055507fcf84a46a93294358c23e7c87e557feb461890c72f3547fb25b455167dcea9efb600360009054906101000a900473ffffffffffffffffffffffffffffffffffffffff16600454604051808373ffffffffffffffffffffffffffffffffffffffff1681526020018281526020019250505060405180910390a1565b60076020528060005260406000206000915090505481565b60015442116107e8576040517f08c379a00000000000000000000000000000000000000000000000000000000081526004018080602001828103825260188152602001807f41637469756e6561206e7520732d61207465726d696e6174000000000000000081525060200191505060405180910390fd5b600660009054906101000a900460ff161561084e576040517f08c379a0000000000000000000000000000000000000000000000000000000008152600401808060200182810382526022815260200180610cc76022913960400191505060405180910390fd5b6001600660006101000a81548160ff02191690831515021790555060008054906101000a900473ffffffffffffffffffffffffffffffffffffffff1673ffffffffffffffffffffffffffffffffffffffff166108fc6004549081150290604051600060405180830381858888f193505050501580156108d1573d6000803e3d6000fd5b507fdaec4582d5d9595688c8c98545fdd1c696d41c6aeaeb636737e84ed2f5c00eda600360009054906101000a900473ffffffffffffffffffffffffffffffffffffffff16600454604051808373ffffffffffffffffffffffffffffffffffffffff1681526020018281526020019250505060405180910390a1565b6000600454905090565b60015481565b60008054906101000a900473ffffffffffffffffffffffffffffffffffffffff1681565b600080600760003373ffffffffffffffffffffffffffffffffffffffff1673ffffffffffffffffffffffffffffffffffffffff1681526020019081526020016000205490506000811115610a9c576000600760003373ffffffffffffffffffffffffffffffffffffffff1673ffffffffffffffffffffffffffffffffffffffff168152602001908152602001600020819055503373ffffffffffffffffffffffffffffffffffffffff166108fc829081150290604051600060405180830381858888f19350505050610a9b5780600760003373ffffffffffffffffffffffffffffffffffffffff1673ffffffffffffffffffffffffffffffffffffffff168152602001908152602001600020819055506000915050610aa2565b5b60019150505b90565b600660009054906101000a900460ff1681565b60055481565b6000600760003373ffffffffffffffffffffffffffffffffffffffff1673ffffffffffffffffffffffffffffffffffffffff16815260200190815260200160002054905090565b6000600660009054906101000a900460ff16905090565b600360009054906101000a900473ffffffffffffffffffffffffffffffffffffffff1681565b606060028054600181600116156101000203166002900480601f016020809104026020016040519081016040528092919081815260200182805460018160011615610100020316600290048015610bda5780601f10610baf57610100808354040283529160200191610bda565b820191906000526020600020905b815481529060010190602001808311610bbd57829003601f168201915b5050505050905090565b60045481565b6000600154905090565b6000600360009054906101000a900473ffffffffffffffffffffffffffffffffffffffff16905090565b60028054600181600116156101000203166002900480601f016020809104026020016040519081016040528092919081815260200182805460018160011615610100020316600290048015610cb45780601f10610c8957610100808354040283529160200191610cb4565b820191906000526020600020905b815481529060010190602001808311610c9757829003601f168201915b505050505081565b600060055490509056fe46756e6374696120646520656e64206120666f73742064656a61206170656c617461a2646970667358221220e831556d07939cdc5d9a5ba253badc8fa6c7da3e0fa8b0710b294c8d3523654864736f6c63430007010033a2646970667358221220691b52038a6850e7bbe8d47eac95de77ed9767f4dd2410533020c4cc9a45d86464736f6c63430007010033",
  "linkReferences": {},
  "deployedLinkReferences": {}
}