{
  "_format": "hh-sol-artifact-1",
  "contractName": "Auction",
  "sourceName": "blockchain/contracts/Auction.sol",
  "abi": [
    {
      "inputs": [
        {
          "internalType": "uint256",
          "name": "time",
          "type": "uint256"
        }
      ],
      "stateMutability": "nonpayable",
      "type": "constructor"
    },
    {
      "anonymous": false,
      "inputs": [
        {
          "indexed": false,
          "internalType": "address",
          "name": "auctionWinner",
          "type": "address"
        },
        {
          "indexed": false,
          "internalType": "uint256",
          "name": "amount",
          "type": "uint256"
        }
      ],
      "name": "AuctionEnded",
      "type": "event"
    },
    {
      "anonymous": false,
      "inputs": [
        {
          "indexed": false,
          "internalType": "address",
          "name": "bidder",
          "type": "address"
        },
        {
          "indexed": false,
          "internalType": "uint256",
          "name": "amount",
          "type": "uint256"
        }
      ],
      "name": "BidIncreased",
      "type": "event"
    },
    {
      "inputs": [],
      "name": "auctionEnd",
      "outputs": [],
      "stateMutability": "nonpayable",
      "type": "function"
    },
    {
      "inputs": [],
      "name": "auctionEnded",
      "outputs": [
        {
          "internalType": "bool",
          "name": "",
          "type": "bool"
        }
      ],
      "stateMutability": "view",
      "type": "function"
    },
    {
      "inputs": [],
      "name": "beneficiary",
      "outputs": [
        {
          "internalType": "address payable",
          "name": "",
          "type": "address"
        }
      ],
      "stateMutability": "view",
      "type": "function"
    },
    {
      "inputs": [],
      "name": "bid",
      "outputs": [],
      "stateMutability": "payable",
      "type": "function"
    },
    {
      "inputs": [],
      "name": "endTime",
      "outputs": [
        {
          "internalType": "uint256",
          "name": "",
          "type": "uint256"
        }
      ],
      "stateMutability": "view",
      "type": "function"
    },
    {
      "inputs": [],
      "name": "fHighestBid",
      "outputs": [
        {
          "internalType": "uint256",
          "name": "",
          "type": "uint256"
        }
      ],
      "stateMutability": "view",
      "type": "function"
    },
    {
      "inputs": [],
      "name": "highestBid",
      "outputs": [
        {
          "internalType": "uint256",
          "name": "",
          "type": "uint256"
        }
      ],
      "stateMutability": "view",
      "type": "function"
    },
    {
      "inputs": [],
      "name": "highestBidder",
      "outputs": [
        {
          "internalType": "address",
          "name": "",
          "type": "address"
        }
      ],
      "stateMutability": "view",
      "type": "function"
    },
    {
      "inputs": [
        {
          "internalType": "address",
          "name": "",
          "type": "address"
        }
      ],
      "name": "pendingReturns",
      "outputs": [
        {
          "internalType": "uint256",
          "name": "",
          "type": "uint256"
        }
      ],
      "stateMutability": "view",
      "type": "function"
    },
    {
      "inputs": [],
      "name": "senderPendingReturns",
      "outputs": [
        {
          "internalType": "uint256",
          "name": "",
          "type": "uint256"
        }
      ],
      "stateMutability": "view",
      "type": "function"
    },
    {
      "inputs": [],
      "name": "timesUp",
      "outputs": [
        {
          "internalType": "bool",
          "name": "",
          "type": "bool"
        }
      ],
      "stateMutability": "view",
      "type": "function"
    },
    {
      "inputs": [],
      "name": "withdraw",
      "outputs": [
        {
          "internalType": "bool",
          "name": "",
          "type": "bool"
        }
      ],
      "stateMutability": "nonpayable",
      "type": "function"
    }
  ],
  "bytecode": "0x60806040523480156200001157600080fd5b5060405162000d7d38038062000d7d8339818101604052810190620000379190620000a9565b336000806101000a81548173ffffffffffffffffffffffffffffffffffffffff021916908373ffffffffffffffffffffffffffffffffffffffff1602179055508042620000859190620000d5565b6001819055505062000185565b600081519050620000a3816200016b565b92915050565b600060208284031215620000bc57600080fd5b6000620000cc8482850162000092565b91505092915050565b6000620000e28262000132565b9150620000ef8362000132565b9250827fffffffffffffffffffffffffffffffffffffffffffffffffffffffffffffffff038211156200012757620001266200013c565b5b828201905092915050565b6000819050919050565b7f4e487b7100000000000000000000000000000000000000000000000000000000600052601160045260246000fd5b620001768162000132565b81146200018257600080fd5b50565b610be880620001956000396000f3fe6080604052600436106100a75760003560e01c80633ccfd60b116100645780633ccfd60b1461018b5780635bec71db146101b657806383912935146101e1578063864333741461020c57806391f9015714610237578063d57bde7914610262576100a7565b80631998aeef146100ac57806326b387bb146100b65780632a24f46c146100f35780633069ce9a1461010a5780633197cbb61461013557806338af3eed14610160575b600080fd5b6100b461028d565b005b3480156100c257600080fd5b506100dd60048036038101906100d891906107db565b610442565b6040516100ea91906109c6565b60405180910390f35b3480156100ff57600080fd5b5061010861045a565b005b34801561011657600080fd5b5061011f6105d1565b60405161012c91906109c6565b60405180910390f35b34801561014157600080fd5b5061014a6105db565b60405161015791906109c6565b60405180910390f35b34801561016c57600080fd5b506101756105e1565b60405161018291906108e7565b60405180910390f35b34801561019757600080fd5b506101a0610605565b6040516101ad919061092b565b60405180910390f35b3480156101c257600080fd5b506101cb610729565b6040516101d8919061092b565b60405180910390f35b3480156101ed57600080fd5b506101f661073c565b60405161020391906109c6565b60405180910390f35b34801561021857600080fd5b50610221610783565b60405161022e919061092b565b60405180910390f35b34801561024357600080fd5b5061024c61079a565b60405161025991906108cc565b60405180910390f35b34801561026e57600080fd5b506102776107c0565b60405161028491906109c6565b60405180910390f35b6001544211156102d2576040517f08c379a00000000000000000000000000000000000000000000000000000000081526004016102c9906109a6565b60405180910390fd5b6003543411610316576040517f08c379a000000000000000000000000000000000000000000000000000000000815260040161030d90610966565b60405180910390fd5b60006003541461039b5760035460056000600260009054906101000a900473ffffffffffffffffffffffffffffffffffffffff1673ffffffffffffffffffffffffffffffffffffffff1673ffffffffffffffffffffffffffffffffffffffff168152602001908152602001600020600082825461039391906109f2565b925050819055505b33600260006101000a81548173ffffffffffffffffffffffffffffffffffffffff021916908373ffffffffffffffffffffffffffffffffffffffff160217905550346003819055507fcf84a46a93294358c23e7c87e557feb461890c72f3547fb25b455167dcea9efb600260009054906101000a900473ffffffffffffffffffffffffffffffffffffffff16600354604051610438929190610902565b60405180910390a1565b60056020528060005260406000206000915090505481565b600154421161049e576040517f08c379a000000000000000000000000000000000000000000000000000000000815260040161049590610986565b60405180910390fd5b600460009054906101000a900460ff16156104ee576040517f08c379a00000000000000000000000000000000000000000000000000000000081526004016104e590610946565b60405180910390fd5b6001600460006101000a81548160ff02191690831515021790555060008054906101000a900473ffffffffffffffffffffffffffffffffffffffff1673ffffffffffffffffffffffffffffffffffffffff166108fc6003549081150290604051600060405180830381858888f19350505050158015610571573d6000803e3d6000fd5b507fdaec4582d5d9595688c8c98545fdd1c696d41c6aeaeb636737e84ed2f5c00eda600260009054906101000a900473ffffffffffffffffffffffffffffffffffffffff166003546040516105c7929190610902565b60405180910390a1565b6000600354905090565b60015481565b60008054906101000a900473ffffffffffffffffffffffffffffffffffffffff1681565b600080600560003373ffffffffffffffffffffffffffffffffffffffff1673ffffffffffffffffffffffffffffffffffffffff1681526020019081526020016000205490506000811115610720576000600560003373ffffffffffffffffffffffffffffffffffffffff1673ffffffffffffffffffffffffffffffffffffffff168152602001908152602001600020819055503373ffffffffffffffffffffffffffffffffffffffff166108fc829081150290604051600060405180830381858888f1935050505061071f5780600560003373ffffffffffffffffffffffffffffffffffffffff1673ffffffffffffffffffffffffffffffffffffffff168152602001908152602001600020819055506000915050610726565b5b60019150505b90565b600460009054906101000a900460ff1681565b6000600560003373ffffffffffffffffffffffffffffffffffffffff1673ffffffffffffffffffffffffffffffffffffffff16815260200190815260200160002054905090565b6000600460009054906101000a900460ff16905090565b600260009054906101000a900473ffffffffffffffffffffffffffffffffffffffff1681565b60035481565b6000813590506107d581610b9b565b92915050565b6000602082840312156107ed57600080fd5b60006107fb848285016107c6565b91505092915050565b61080d81610a5a565b82525050565b61081c81610a48565b82525050565b61082b81610a6c565b82525050565b600061083e6022836109e1565b915061084982610ad1565b604082019050919050565b60006108616014836109e1565b915061086c82610b20565b602082019050919050565b60006108846018836109e1565b915061088f82610b49565b602082019050919050565b60006108a76015836109e1565b91506108b282610b72565b602082019050919050565b6108c681610a98565b82525050565b60006020820190506108e16000830184610813565b92915050565b60006020820190506108fc6000830184610804565b92915050565b60006040820190506109176000830185610813565b61092460208301846108bd565b9392505050565b60006020820190506109406000830184610822565b92915050565b6000602082019050818103600083015261095f81610831565b9050919050565b6000602082019050818103600083015261097f81610854565b9050919050565b6000602082019050818103600083015261099f81610877565b9050919050565b600060208201905081810360008301526109bf8161089a565b9050919050565b60006020820190506109db60008301846108bd565b92915050565b600082825260208201905092915050565b60006109fd82610a98565b9150610a0883610a98565b9250827fffffffffffffffffffffffffffffffffffffffffffffffffffffffffffffffff03821115610a3d57610a3c610aa2565b5b828201905092915050565b6000610a5382610a78565b9050919050565b6000610a6582610a78565b9050919050565b60008115159050919050565b600073ffffffffffffffffffffffffffffffffffffffff82169050919050565b6000819050919050565b7f4e487b7100000000000000000000000000000000000000000000000000000000600052601160045260246000fd5b7f46756e6374696120646520656e64206120666f73742064656a61206170656c6160008201527f7461000000000000000000000000000000000000000000000000000000000000602082015250565b7f4269642d756c20657374652070726561206d6963000000000000000000000000600082015250565b7f41637469756e6561206e7520732d61207465726d696e61740000000000000000600082015250565b7f41637469756e656120732d61207465726d696e61740000000000000000000000600082015250565b610ba481610a48565b8114610baf57600080fd5b5056fea2646970667358221220348149c956d02bdf9c68847895194cd2b8df8330c0df7278e68d059854c75ec264736f6c63430008040033",
  "linkReferences": {},
  "deployedLinkReferences": {}
}