{
  "_format": "hh-sol-artifact-1",
  "contractName": "Auction",
  "sourceName": "blockchain/contracts/Auction.sol",
  "abi": [
    {
      "inputs": [
        {
          "internalType": "uint256",
          "name": "time",
          "type": "uint256"
        },
        {
          "internalType": "string",
          "name": "name",
          "type": "string"
        },
        {
          "internalType": "uint256",
          "name": "initBid",
          "type": "uint256"
        }
      ],
      "stateMutability": "nonpayable",
      "type": "constructor"
    },
    {
      "anonymous": false,
      "inputs": [
        {
          "indexed": false,
          "internalType": "address",
          "name": "auctionWinner",
          "type": "address"
        },
        {
          "indexed": false,
          "internalType": "uint256",
          "name": "amount",
          "type": "uint256"
        }
      ],
      "name": "AuctionEnded",
      "type": "event"
    },
    {
      "anonymous": false,
      "inputs": [
        {
          "indexed": false,
          "internalType": "address",
          "name": "bidder",
          "type": "address"
        },
        {
          "indexed": false,
          "internalType": "uint256",
          "name": "amount",
          "type": "uint256"
        }
      ],
      "name": "BidIncreased",
      "type": "event"
    },
    {
      "inputs": [],
      "name": "auctionEnd",
      "outputs": [],
      "stateMutability": "nonpayable",
      "type": "function"
    },
    {
      "inputs": [],
      "name": "auctionEnded",
      "outputs": [
        {
          "internalType": "bool",
          "name": "",
          "type": "bool"
        }
      ],
      "stateMutability": "view",
      "type": "function"
    },
    {
      "inputs": [],
      "name": "beneficiary",
      "outputs": [
        {
          "internalType": "address payable",
          "name": "",
          "type": "address"
        }
      ],
      "stateMutability": "view",
      "type": "function"
    },
    {
      "inputs": [],
      "name": "bid",
      "outputs": [],
      "stateMutability": "payable",
      "type": "function"
    },
    {
      "inputs": [],
      "name": "endTime",
      "outputs": [
        {
          "internalType": "uint256",
          "name": "",
          "type": "uint256"
        }
      ],
      "stateMutability": "view",
      "type": "function"
    },
    {
      "inputs": [],
      "name": "fHighestBid",
      "outputs": [
        {
          "internalType": "uint256",
          "name": "",
          "type": "uint256"
        }
      ],
      "stateMutability": "view",
      "type": "function"
    },
    {
      "inputs": [],
      "name": "fHighestBiddder",
      "outputs": [
        {
          "internalType": "address",
          "name": "",
          "type": "address"
        }
      ],
      "stateMutability": "view",
      "type": "function"
    },
    {
      "inputs": [],
      "name": "fInitialHighestBid",
      "outputs": [
        {
          "internalType": "uint256",
          "name": "",
          "type": "uint256"
        }
      ],
      "stateMutability": "view",
      "type": "function"
    },
    {
      "inputs": [],
      "name": "getItemEndTime",
      "outputs": [
        {
          "internalType": "uint256",
          "name": "",
          "type": "uint256"
        }
      ],
      "stateMutability": "view",
      "type": "function"
    },
    {
      "inputs": [],
      "name": "getItemName",
      "outputs": [
        {
          "internalType": "string",
          "name": "",
          "type": "string"
        }
      ],
      "stateMutability": "view",
      "type": "function"
    },
    {
      "inputs": [],
      "name": "highestBid",
      "outputs": [
        {
          "internalType": "uint256",
          "name": "",
          "type": "uint256"
        }
      ],
      "stateMutability": "view",
      "type": "function"
    },
    {
      "inputs": [],
      "name": "highestBidder",
      "outputs": [
        {
          "internalType": "address",
          "name": "",
          "type": "address"
        }
      ],
      "stateMutability": "view",
      "type": "function"
    },
    {
      "inputs": [],
      "name": "initialBid",
      "outputs": [
        {
          "internalType": "uint256",
          "name": "",
          "type": "uint256"
        }
      ],
      "stateMutability": "view",
      "type": "function"
    },
    {
      "inputs": [],
      "name": "item",
      "outputs": [
        {
          "internalType": "string",
          "name": "",
          "type": "string"
        }
      ],
      "stateMutability": "view",
      "type": "function"
    },
    {
      "inputs": [
        {
          "internalType": "address",
          "name": "",
          "type": "address"
        }
      ],
      "name": "pendingReturns",
      "outputs": [
        {
          "internalType": "uint256",
          "name": "",
          "type": "uint256"
        }
      ],
      "stateMutability": "view",
      "type": "function"
    },
    {
      "inputs": [],
      "name": "senderPendingReturns",
      "outputs": [
        {
          "internalType": "uint256",
          "name": "",
          "type": "uint256"
        }
      ],
      "stateMutability": "view",
      "type": "function"
    },
    {
      "inputs": [],
      "name": "timesUp",
      "outputs": [
        {
          "internalType": "bool",
          "name": "",
          "type": "bool"
        }
      ],
      "stateMutability": "view",
      "type": "function"
    },
    {
      "inputs": [],
      "name": "withdraw",
      "outputs": [
        {
          "internalType": "bool",
          "name": "",
          "type": "bool"
        }
      ],
      "stateMutability": "nonpayable",
      "type": "function"
    }
  ],
  "bytecode": "0x60806040523480156200001157600080fd5b5060405162001447380380620014478339818101604052810190620000379190620001ed565b336000806101000a81548173ffffffffffffffffffffffffffffffffffffffff021916908373ffffffffffffffffffffffffffffffffffffffff1602179055508242620000859190620002bb565b6001819055508160029080519060200190620000a3929190620000b4565b50806005819055505050506200047c565b828054620000c29062000358565b90600052602060002090601f016020900481019282620000e6576000855562000132565b82601f106200010157805160ff191683800117855562000132565b8280016001018555821562000132579182015b828111156200013157825182559160200191906001019062000114565b5b50905062000141919062000145565b5090565b5b808211156200016057600081600090555060010162000146565b5090565b60006200017b620001758462000285565b6200025c565b9050828152602081018484840111156200019457600080fd5b620001a184828562000322565b509392505050565b600082601f830112620001bb57600080fd5b8151620001cd84826020860162000164565b91505092915050565b600081519050620001e78162000462565b92915050565b6000806000606084860312156200020357600080fd5b60006200021386828701620001d6565b935050602084015167ffffffffffffffff8111156200023157600080fd5b6200023f86828701620001a9565b92505060406200025286828701620001d6565b9150509250925092565b6000620002686200027b565b90506200027682826200038e565b919050565b6000604051905090565b600067ffffffffffffffff821115620002a357620002a262000422565b5b620002ae8262000451565b9050602081019050919050565b6000620002c88262000318565b9150620002d58362000318565b9250827fffffffffffffffffffffffffffffffffffffffffffffffffffffffffffffffff038211156200030d576200030c620003c4565b5b828201905092915050565b6000819050919050565b60005b838110156200034257808201518184015260208101905062000325565b8381111562000352576000848401525b50505050565b600060028204905060018216806200037157607f821691505b60208210811415620003885762000387620003f3565b5b50919050565b620003998262000451565b810181811067ffffffffffffffff82111715620003bb57620003ba62000422565b5b80604052505050565b7f4e487b7100000000000000000000000000000000000000000000000000000000600052601160045260246000fd5b7f4e487b7100000000000000000000000000000000000000000000000000000000600052602260045260246000fd5b7f4e487b7100000000000000000000000000000000000000000000000000000000600052604160045260246000fd5b6000601f19601f8301169050919050565b6200046d8162000318565b81146200047957600080fd5b50565b610fbb806200048c6000396000f3fe6080604052600436106101095760003560e01c80638391293511610095578063d57bde7911610064578063d57bde791461031a578063d881bf6014610345578063f29463d514610370578063f2a4a82e1461039b578063fafa30db146103c657610109565b8063839129351461026e578063864333741461029957806391f90157146102c4578063c819d85a146102ef57610109565b80633197cbb6116100dc5780633197cbb61461019757806338af3eed146101c25780633ccfd60b146101ed5780635bec71db1461021857806367ea4abb1461024357610109565b80631998aeef1461010e57806326b387bb146101185780632a24f46c146101555780633069ce9a1461016c575b600080fd5b6101166103f1565b005b34801561012457600080fd5b5061013f600480360381019061013a9190610aa3565b6105a6565b60405161014c9190610ce9565b60405180910390f35b34801561016157600080fd5b5061016a6105be565b005b34801561017857600080fd5b50610181610735565b60405161018e9190610ce9565b60405180910390f35b3480156101a357600080fd5b506101ac61073f565b6040516101b99190610ce9565b60405180910390f35b3480156101ce57600080fd5b506101d7610745565b6040516101e49190610be8565b60405180910390f35b3480156101f957600080fd5b50610202610769565b60405161020f9190610c2c565b60405180910390f35b34801561022457600080fd5b5061022d61088d565b60405161023a9190610c2c565b60405180910390f35b34801561024f57600080fd5b506102586108a0565b6040516102659190610ce9565b60405180910390f35b34801561027a57600080fd5b506102836108a6565b6040516102909190610ce9565b60405180910390f35b3480156102a557600080fd5b506102ae6108ed565b6040516102bb9190610c2c565b60405180910390f35b3480156102d057600080fd5b506102d9610904565b6040516102e69190610bcd565b60405180910390f35b3480156102fb57600080fd5b5061030461092a565b6040516103119190610c47565b60405180910390f35b34801561032657600080fd5b5061032f6109bc565b60405161033c9190610ce9565b60405180910390f35b34801561035157600080fd5b5061035a6109c2565b6040516103679190610ce9565b60405180910390f35b34801561037c57600080fd5b506103856109cc565b6040516103929190610bcd565b60405180910390f35b3480156103a757600080fd5b506103b06109f6565b6040516103bd9190610c47565b60405180910390f35b3480156103d257600080fd5b506103db610a84565b6040516103e89190610ce9565b60405180910390f35b600154421115610436576040517f08c379a000000000000000000000000000000000000000000000000000000000815260040161042d90610cc9565b60405180910390fd5b600454341161047a576040517f08c379a000000000000000000000000000000000000000000000000000000000815260040161047190610c89565b60405180910390fd5b6000600454146104ff5760045460076000600360009054906101000a900473ffffffffffffffffffffffffffffffffffffffff1673ffffffffffffffffffffffffffffffffffffffff1673ffffffffffffffffffffffffffffffffffffffff16815260200190815260200160002060008282546104f79190610d20565b925050819055505b33600360006101000a81548173ffffffffffffffffffffffffffffffffffffffff021916908373ffffffffffffffffffffffffffffffffffffffff160217905550346004819055507fcf84a46a93294358c23e7c87e557feb461890c72f3547fb25b455167dcea9efb600360009054906101000a900473ffffffffffffffffffffffffffffffffffffffff1660045460405161059c929190610c03565b60405180910390a1565b60076020528060005260406000206000915090505481565b6001544211610602576040517f08c379a00000000000000000000000000000000000000000000000000000000081526004016105f990610ca9565b60405180910390fd5b600660009054906101000a900460ff1615610652576040517f08c379a000000000000000000000000000000000000000000000000000000000815260040161064990610c69565b60405180910390fd5b6001600660006101000a81548160ff02191690831515021790555060008054906101000a900473ffffffffffffffffffffffffffffffffffffffff1673ffffffffffffffffffffffffffffffffffffffff166108fc6004549081150290604051600060405180830381858888f193505050501580156106d5573d6000803e3d6000fd5b507fdaec4582d5d9595688c8c98545fdd1c696d41c6aeaeb636737e84ed2f5c00eda600360009054906101000a900473ffffffffffffffffffffffffffffffffffffffff1660045460405161072b929190610c03565b60405180910390a1565b6000600454905090565b60015481565b60008054906101000a900473ffffffffffffffffffffffffffffffffffffffff1681565b600080600760003373ffffffffffffffffffffffffffffffffffffffff1673ffffffffffffffffffffffffffffffffffffffff1681526020019081526020016000205490506000811115610884576000600760003373ffffffffffffffffffffffffffffffffffffffff1673ffffffffffffffffffffffffffffffffffffffff168152602001908152602001600020819055503373ffffffffffffffffffffffffffffffffffffffff166108fc829081150290604051600060405180830381858888f193505050506108835780600760003373ffffffffffffffffffffffffffffffffffffffff1673ffffffffffffffffffffffffffffffffffffffff16815260200190815260200160002081905550600091505061088a565b5b60019150505b90565b600660009054906101000a900460ff1681565b60055481565b6000600760003373ffffffffffffffffffffffffffffffffffffffff1673ffffffffffffffffffffffffffffffffffffffff16815260200190815260200160002054905090565b6000600660009054906101000a900460ff16905090565b600360009054906101000a900473ffffffffffffffffffffffffffffffffffffffff1681565b60606002805461093990610e03565b80601f016020809104026020016040519081016040528092919081815260200182805461096590610e03565b80156109b25780601f10610987576101008083540402835291602001916109b2565b820191906000526020600020905b81548152906001019060200180831161099557829003601f168201915b5050505050905090565b60045481565b6000600154905090565b6000600360009054906101000a900473ffffffffffffffffffffffffffffffffffffffff16905090565b60028054610a0390610e03565b80601f0160208091040260200160405190810160405280929190818152602001828054610a2f90610e03565b8015610a7c5780601f10610a5157610100808354040283529160200191610a7c565b820191906000526020600020905b815481529060010190602001808311610a5f57829003601f168201915b505050505081565b6000600554905090565b600081359050610a9d81610f6e565b92915050565b600060208284031215610ab557600080fd5b6000610ac384828501610a8e565b91505092915050565b610ad581610d88565b82525050565b610ae481610d76565b82525050565b610af381610d9a565b82525050565b6000610b0482610d04565b610b0e8185610d0f565b9350610b1e818560208601610dd0565b610b2781610e93565b840191505092915050565b6000610b3f602283610d0f565b9150610b4a82610ea4565b604082019050919050565b6000610b62601483610d0f565b9150610b6d82610ef3565b602082019050919050565b6000610b85601883610d0f565b9150610b9082610f1c565b602082019050919050565b6000610ba8601583610d0f565b9150610bb382610f45565b602082019050919050565b610bc781610dc6565b82525050565b6000602082019050610be26000830184610adb565b92915050565b6000602082019050610bfd6000830184610acc565b92915050565b6000604082019050610c186000830185610adb565b610c256020830184610bbe565b9392505050565b6000602082019050610c416000830184610aea565b92915050565b60006020820190508181036000830152610c618184610af9565b905092915050565b60006020820190508181036000830152610c8281610b32565b9050919050565b60006020820190508181036000830152610ca281610b55565b9050919050565b60006020820190508181036000830152610cc281610b78565b9050919050565b60006020820190508181036000830152610ce281610b9b565b9050919050565b6000602082019050610cfe6000830184610bbe565b92915050565b600081519050919050565b600082825260208201905092915050565b6000610d2b82610dc6565b9150610d3683610dc6565b9250827fffffffffffffffffffffffffffffffffffffffffffffffffffffffffffffffff03821115610d6b57610d6a610e35565b5b828201905092915050565b6000610d8182610da6565b9050919050565b6000610d9382610da6565b9050919050565b60008115159050919050565b600073ffffffffffffffffffffffffffffffffffffffff82169050919050565b6000819050919050565b60005b83811015610dee578082015181840152602081019050610dd3565b83811115610dfd576000848401525b50505050565b60006002820490506001821680610e1b57607f821691505b60208210811415610e2f57610e2e610e64565b5b50919050565b7f4e487b7100000000000000000000000000000000000000000000000000000000600052601160045260246000fd5b7f4e487b7100000000000000000000000000000000000000000000000000000000600052602260045260246000fd5b6000601f19601f8301169050919050565b7f46756e6374696120646520656e64206120666f73742064656a61206170656c6160008201527f7461000000000000000000000000000000000000000000000000000000000000602082015250565b7f4269642d756c20657374652070726561206d6963000000000000000000000000600082015250565b7f41637469756e6561206e7520732d61207465726d696e61740000000000000000600082015250565b7f41637469756e656120732d61207465726d696e61740000000000000000000000600082015250565b610f7781610d76565b8114610f8257600080fd5b5056fea26469706673582212206f353315f729a36d4c793c03615ae78e87e94aa190d3a700278fedd63e0686f064736f6c63430008040033",
  "linkReferences": {},
  "deployedLinkReferences": {}
}