{
  "_format": "hh-sol-artifact-1",
  "contractName": "Bank",
  "sourceName": "blockchain/contracts/Bank.sol",
  "abi": [
    {
      "inputs": [],
      "stateMutability": "nonpayable",
      "type": "constructor"
    },
    {
      "inputs": [
        {
          "internalType": "address",
          "name": "",
          "type": "address"
        }
      ],
      "name": "accounts",
      "outputs": [
        {
          "internalType": "uint256",
          "name": "",
          "type": "uint256"
        }
      ],
      "stateMutability": "view",
      "type": "function"
    },
    {
      "inputs": [],
      "name": "deposit",
      "outputs": [],
      "stateMutability": "payable",
      "type": "function"
    },
    {
      "inputs": [],
      "name": "totalAssets",
      "outputs": [
        {
          "internalType": "uint256",
          "name": "",
          "type": "uint256"
        }
      ],
      "stateMutability": "view",
      "type": "function"
    },
    {
      "inputs": [
        {
          "internalType": "uint256",
          "name": "_amount",
          "type": "uint256"
        },
        {
          "internalType": "address",
          "name": "_tokenContract",
          "type": "address"
        }
      ],
      "name": "withdraw",
      "outputs": [],
      "stateMutability": "nonpayable",
      "type": "function"
    }
  ],
  "bytecode": "0x608060405234801561001057600080fd5b50610688806100206000396000f3fe60806040526004361061003e5760003560e01c8062f714ce1461004357806301e1d1141461006c5780635e5c06e214610097578063d0e30db0146100d4575b600080fd5b34801561004f57600080fd5b5061006a60048036038101906100659190610387565b6100de565b005b34801561007857600080fd5b5061008161027a565b60405161008e919061049f565b60405180910390f35b3480156100a357600080fd5b506100be60048036038101906100b9919061035e565b610282565b6040516100cb919061049f565b60405180910390f35b6100dc61029a565b005b6000803373ffffffffffffffffffffffffffffffffffffffff1673ffffffffffffffffffffffffffffffffffffffff1681526020019081526020016000205482111561015f576040517f08c379a00000000000000000000000000000000000000000000000000000000081526004016101569061047f565b60405180910390fd5b816000803373ffffffffffffffffffffffffffffffffffffffff1673ffffffffffffffffffffffffffffffffffffffff16815260200190815260200160002060008282546101ad9190610521565b925050819055503373ffffffffffffffffffffffffffffffffffffffff166108fc839081150290604051600060405180830381858888f193505050501580156101fa573d6000803e3d6000fd5b5060008190508073ffffffffffffffffffffffffffffffffffffffff166340c10f1933670de0b6b3a76400006040518363ffffffff1660e01b8152600401610243929190610436565b600060405180830381600087803b15801561025d57600080fd5b505af1158015610271573d6000803e3d6000fd5b50505050505050565b600047905090565b60006020528060005260406000206000915090505481565b600034116102dd576040517f08c379a00000000000000000000000000000000000000000000000000000000081526004016102d49061045f565b60405180910390fd5b346000803373ffffffffffffffffffffffffffffffffffffffff1673ffffffffffffffffffffffffffffffffffffffff168152602001908152602001600020600082825461032b91906104cb565b92505081905550565b60008135905061034381610624565b92915050565b6000813590506103588161063b565b92915050565b60006020828403121561037057600080fd5b600061037e84828501610334565b91505092915050565b6000806040838503121561039a57600080fd5b60006103a885828601610349565b92505060206103b985828601610334565b9150509250929050565b6103cc81610555565b82525050565b6103db81610591565b82525050565b60006103ee6016836104ba565b91506103f9826105d2565b602082019050919050565b6000610411600d836104ba565b915061041c826105fb565b602082019050919050565b61043081610587565b82525050565b600060408201905061044b60008301856103c3565b61045860208301846103d2565b9392505050565b60006020820190508181036000830152610478816103e1565b9050919050565b6000602082019050818103600083015261049881610404565b9050919050565b60006020820190506104b46000830184610427565b92915050565b600082825260208201905092915050565b60006104d682610587565b91506104e183610587565b9250827fffffffffffffffffffffffffffffffffffffffffffffffffffffffffffffffff03821115610516576105156105a3565b5b828201905092915050565b600061052c82610587565b915061053783610587565b92508282101561054a576105496105a3565b5b828203905092915050565b600061056082610567565b9050919050565b600073ffffffffffffffffffffffffffffffffffffffff82169050919050565b6000819050919050565b600061059c82610587565b9050919050565b7f4e487b7100000000000000000000000000000000000000000000000000000000600052601160045260246000fd5b7f43657661206d6169206d61726520646563617420302e00000000000000000000600082015250565b7f4e752061692064657374756c2100000000000000000000000000000000000000600082015250565b61062d81610555565b811461063857600080fd5b50565b61064481610587565b811461064f57600080fd5b5056fea2646970667358221220b44727437bd86fc5c959b8b024a3ab40f23b880d30bd792680838f7dff7d500c64736f6c63430008040033",
  "linkReferences": {},
  "deployedLinkReferences": {}
}